:020000040800F2
:1000000000280020811700081117000817170008A2
:100010001D1700082317000829170008000000001A
:100020000000000000000000000000002F17000882
:100030003B1700080000000047170008531700088E
:10004000C9170008C9170008C9170008C917000810
:10005000C9170008C9170008C9170008C917000800
:10006000C9170008C9170008C9170008C9170008F0
:10007000C9170008C9170008C9170008C9170008E0
:10008000C9170008C9170008C9170008C9170008D0
:10009000C9170008C9170008C9170008C9170008C0
:1000A000C9170008C9170008C9170008C9170008B0
:1000B00061170008C917000800000000C9170008F0
:1000C000C91700080000000000000000C917000860
:1000D00000000000C9170008C91700080000000050
:1000E000C9170008C9170008C91700080000000058
:1000F0000000000000000000000000000000000000
:0C01000000000000000000005FF808F1A3
:10010C0010B5054C237833B9044B13B10448AFF345
:10011C0000800123237010BD680000200000000047
:10012C00242E000808B5034B1BB103490348AFF359
:10013C00008008BD000000006C000020242E000888
:10014C0080B582B000AF78607B68022B00F0AB808A
:10015C007B68022B00F3C9807B68002B03D07B6883
:10016C00012B60D0C1E0634B1B68013B032B55D8BE
:10017C0001A252F823F000BF95010008B901000854
:10018C00DD010008010200085A4B02221A605A4B8A
:10019C001B685A4A13605A4B1B685A4A13605A4BD5
:1001AC001B685A4A136000F091FF3BE0514B03224D
:1001BC001A60514B1B68514A1360514B1B68514AD2
:1001CC001360514B1B68514A136000F07FFF29E00C
:1001DC00484B04221A60484B1B68484A1360484B32
:1001EC001B68484A1360484B1B68484A136000F070
:1001FC006DFF17E03F4B01221A603F4B1B683F4AD3
:10020C0013603F4B1B683F4A13603F4B1B683F4AD0
:10021C00136000F05BFF00F07DFF03E0354B012223
:10022C001A6000BF62E0334B1B68013B032B32D8D2
:10023C0001A252F823F000BFA302000855020008E7
:10024C006F020008890200082C4B1B6801332B4AF3
:10025C0013602A4B1B68632B1FDD284B01221A608D
:10026C001BE0284B1B680133264A1360254B1B6887
:10027C00632B14DD234B01221A6010E0234B1B6807
:10028C000133224A1360214B1B68632B09DD1F4B82
:10029C0001221A6005E000BF28E000BF26E000BF85
:1002AC0024E000BF22E0134B1B68013B032B1AD840
:1002BC0001A252F823F000BFF3020008D502000897
:1002CC00DF020008E90200080C4B1B680A4A1360A5
:1002DC000AE00C4B1B680A4A136005E00B4B1B68C9
:1002EC00094A136000E000BF00E000BF00BF083700
:1002FC00BD4680BD3C000020440000205000002082
:10030C0048000020540000204C0000205800002021
:10031C0080B582B000AF78607868FFF711FF00BF3E
:10032C000837BD4680BD000080B582B000AF002309
:10033C007B608EE04B4A7B6852F823204A497B68ED
:10034C0041F82320494A7B6852F8232045497B68B1
:10035C0041F823207B68002B0AD14FF4005144480C
:10036C0001F018FD03461946404A7B6842F82310F9
:10037C007B68012B0AD14FF480413D4801F00AFD06
:10038C0003461946394A7B6842F823107B68022BD6
:10039C000AD14FF40041364801F0FCFC03461946E3
:1003AC00324A7B6842F823102F4A7B6852F823208C
:1003BC002C497B6851F823309A4247D1294A7B68F3
:1003CC0052F8232029497B6851F823309A423DD1B9
:1003DC00284A7B6852F8232024497B6851F8233043
:1003EC009A4216D0214A7B6852F8232021497B6817
:1003FC0041F823201D4A7B6852F82330002B25D16D
:10040C001D4A7B68642142F823107868FFF798FE38
:10041C001CE0194A7B6852F823305A1E16497B6837
:10042C0041F82320144A7B6852F82330002B0DDC52
:10043C00114A7B68642142F823100C4A7B6852F8FD
:10044C002330002B02D17868FFF762FF7B68013301
:10045C007B607B68022B7FF76DAF00BF00BF083756
:10046C00BD4680BD0C0000200000002018000020BC
:10047C0000100140240000203000002080B582B024
:10048C0000AF78607B68092B00F2EA8001A252F879
:10049C0023F000BFC9040008F30400081D05000880
:1004AC0047050008710500089B050008C5050008F4
:1004BC00EF05000819060008430600080022012178
:1004CC00764801F07EFC00220221744801F079FC90
:1004DC0000220421714801F074FC002208216F48AD
:1004EC0001F06FFCD5E0002201216C4801F069FCA1
:1004FC0000220221694801F064FC002204216748B3
:10050C0001F05FFC01220821644801F05AFCC0E0B4
:10051C0000220121614801F054FC002202215F48B5
:10052C0001F04FFC012204215C4801F04AFC00223E
:10053C0008215A4801F045FCABE000220121574844
:10054C0001F03FFC00220221544801F03AFC012248
:10055C000421524801F035FC012208214F4801F0DA
:10056C0030FC96E0002201214C4801F02AFC0122CB
:10057C0002214A4801F025FC00220421474801F0E1
:10058C0020FC00220821454801F01BFC81E00022E0
:10059C000121424801F015FC012202213F4801F0E3
:1005AC0010FC002204213D4801F00BFC0122082123
:1005BC003A4801F006FC6CE000220121374801F0BA
:1005CC0000FC01220221354801F0FBFB0122042131
:1005DC00324801F0F6FB00220821304801F0F1FB13
:1005EC0057E0002201212D4801F0EBFB01220221F2
:1005FC002A4801F0E6FB01220421284801F0E1FB26
:10060C0001220821254801F0DCFB42E001220121F6
:10061C00224801F0D6FB00220221204801F0D1FB38
:10062C00002204211D4801F0CCFB002208211B48AC
:10063C0001F0C7FB2DE001220121184801F0C1FB9C
:10064C0000220221154801F0BCFB002204211348B2
:10065C0001F0B7FB01220821104801F0B2FB18E0B1
:10066C0000224FF480510D4801F0ABFB00224FF4F7
:10067C0000510A4801F0A5FB00224FF480410748C5
:10068C0001F09FFB00224FF40041044801F099FB5C
:10069C0000BF00BF0837BD4680BD00BF000C014045
:1006AC0080B582B000AF78607B68092B00F2EA80DD
:1006BC0001A252F823F000BFED060008170700084E
:1006CC00410700086B07000895070008BF070008E2
:1006DC00E9070008130800083D080008670800082F
:1006EC0000221021764801F06CFB00222021744876
:1006FC0001F067FB00224021714801F062FB0022EF
:10070C0080216F4801F05DFBD5E0002210216C4880
:10071C0001F057FB00222021694801F052FB002216
:10072C004021674801F04DFB01228021644801F013
:10073C0048FBC0E000221021614801F042FB00227E
:10074C0020215F4801F03DFB012240215C4801F073
:10075C0038FB002280215A4801F033FBABE0002229
:10076C001021574801F02DFB00222021544801F0A4
:10077C0028FB01224021524801F023FB0122802159
:10078C004F4801F01EFB96E0002210214C4801F06E
:10079C0018FB012220214A4801F013FB00224021C2
:1007AC00474801F00EFB00228021454801F009FB6F
:1007BC0081E000221021424801F003FB012220219C
:1007CC003F4801F0FEFA002240213D4801F0F9FAC1
:1007DC00012280213A4801F0F4FA6CE00022102149
:1007EC00374801F0EEFA01222021354801F0E9FAF0
:1007FC0001224021324801F0E4FA002280213048E5
:10080C0001F0DFFA57E0002210212D4801F0D9FA4F
:10081C00012220212A4801F0D4FA01224021284843
:10082C0001F0CFFA01228021254801F0CAFA42E0FA
:10083C0001221021224801F0C4FA00222021204874
:10084C0001F0BFFA002240211D4801F0BAFA002243
:10085C0080211B4801F0B5FA2DE001221021184827
:10086C0001F0AFFA00222021154801F0AAFA00226B
:10087C004021134801F0A5FA01228021104801F013
:10088C00A0FA18E000224FF480510D4801F099FABB
:10089C0000224FF400510A4801F093FA00224FF461
:1008AC008041074801F08DFA00224FF400410448C2
:1008BC0001F087FA00BF00BF0837BD4680BD00BFFE
:1008CC00000C014080B582B000AF78607B68092BCA
:1008DC0000F2128101A252F823F000BF11090008A6
:1008EC004309000875090008A7090008D909000880
:1008FC000B0A00083D0A00086F0A0008A10A00084C
:10090C00D30A000800224FF480718A4801F059FA8A
:10091C0000224FF40071874801F053FA00224FF483
:10092C008061844801F04DFA00224FF40061814847
:10093C0001F047FAF9E000224FF480717D4801F094
:10094C0040FA00224FF400717A4801F03AFA002282
:10095C004FF48061774801F034FA01224FF40061C2
:10096C00744801F02EFAE0E000224FF480717148D7
:10097C0001F027FA00224FF400716E4801F021FAC1
:10098C0001224FF480616B4801F01BFA00224FF4F6
:10099C000061684801F015FAC7E000224FF480713D
:1009AC00644801F00EFA00224FF40071614801F026
:1009BC0008FA01224FF480615E4801F002FA01222C
:1009CC004FF400615B4801F0FCF9AEE000224FF4FB
:1009DC008071584801F0F5F901224FF40071554827
:1009EC0001F0EFF900224FF48061524801F0E9F96F
:1009FC0000224FF400614F4801F0E3F995E000222A
:100A0C004FF480714B4801F0DCF901224FF4007176
:100A1C00484801F0D6F900224FF48061454801F0B6
:100A2C00D0F901224FF40061424801F0CAF97CE090
:100A3C0000224FF480713F4801F0C3F901224FF4BA
:100A4C0000713C4801F0BDF901224FF48061394836
:100A5C0001F0B7F900224FF40061364801F0B1F90A
:100A6C0063E000224FF48071324801F0AAF90122B0
:100A7C004FF400712F4801F0A4F901224FF480616A
:100A8C002C4801F09EF901224FF40061294801F035
:100A9C0098F94AE001224FF48071264801F091F94F
:100AAC0000224FF40071234801F08BF900224FF41F
:100ABC008061204801F085F900224FF400611D4847
:100ACC0001F07FF931E001224FF48071194801F0F7
:100ADC0078F900224FF40071164801F072F90022E7
:100AEC004FF48061134801F06CF901224FF400615E
:100AFC00104801F066F918E000224FF480510D48BF
:100B0C0001F05FF900224FF400510A4801F059F945
:100B1C0000224FF48041074801F053F900224FF4B2
:100B2C000041044801F04DF900BF00BF0837BD4635
:100B3C0080BD00BF000C014080B582B000AF786072
:100B4C007B68092B00F2128101A252F823F000BF3E
:100B5C00850B0008B70B0008E90B00081B0C0008FC
:100B6C004D0C00087F0C0008B10C0008E30C0008C9
:100B7C00150D0008470D000800224FF480518A48DB
:100B8C0001F01FF900224FF40051874801F019F9C8
:100B9C0000224FF48041844801F013F900224FF4F5
:100BAC000041814801F00DF9F9E000224FF4805129
:100BBC007D4801F006F900224FF400517A4801F00B
:100BCC0000F900224FF48041774801F0FAF8012235
:100BDC004FF40041744801F0F4F8E0E000224FF4C7
:100BEC008051714801F0EDF800224FF400516E482D
:100BFC0001F0E7F801224FF480416B4801F0E1F875
:100C0C0000224FF40041684801F0DBF8C7E00022F5
:100C1C004FF48051644801F0D4F800224FF4005195
:100C2C00614801F0CEF801224FF480415E4801F09A
:100C3C00C8F801224FF400415B4801F0C2F8AEE065
:100C4C0000224FF48051584801F0BBF801224FF4B8
:100C5C000051554801F0B5F800224FF4804152483C
:100C6C0001F0AFF800224FF400414F4801F0A9F811
:100C7C0095E000224FF480514B4801F0A2F801227C
:100C8C004FF40051484801F09CF800224FF4804189
:100C9C00454801F096F801224FF40041424801F01A
:100CAC0090F87CE000224FF480513F4801F089F825
:100CBC0001224FF400513C4801F083F801224FF41B
:100CCC008041394801F07DF800224FF4004136484C
:100CDC0001F077F863E000224FF48051324801F0C4
:100CEC0070F801224FF400512F4801F06AF80122EC
:100CFC004FF480412C4801F064F801224FF400417C
:100D0C00294801F05EF84AE001224FF48051264850
:100D1C0001F057F800224FF40051234801F051F82C
:100D2C0000224FF48041204801F04BF800224FF490
:100D3C0000411D4801F045F831E001224FF480518B
:100D4C00194801F03EF800224FF40051164801F00A
:100D5C0038F800224FF48041134801F032F8012298
:100D6C004FF40041104801F02CF818E000224FF429
:100D7C0080510D4801F025F800224FF400510A482B
:100D8C0001F01FF800224FF48041074801F019F8D8
:100D9C0000224FF40041044801F013F800BF00BFDB
:100DAC000837BD4680BD00BF000C014080B582B045
:100DBC0000AF78607B680E4A82FB03129210DB173F
:100DCC00D31A1846FFF75AFB7A68094B83FB0213B8
:100DDC009910D317C91A0B469B000B445B00D11A10
:100DEC000846FFF75DFC00BF0837BD4680BD00BF5D
:100DFC006766666680B582B000AF78607B680E4A25
:100E0C0082FB03129210DB17D31A1846FFF75AFD18
:100E1C007A68094B83FB02139910D317C91A0B4636
:100E2C009B000B445B00D11A0846FFF785FE00BF00
:100E3C000837BD4680BD00BF6766666680B584B066
:100E4C0000AF00F0BDFC00F033F800F0B9F800F092
:100E5C006BF8134801F01CFC01F0A2FB0346FB608D
:100E6C000F4B5B68BB600E4BDB687B60FA68BB6842
:100E7C0092FBF3F27B6892FBF3F30A4A136000F0E7
:100E8C0049F900F0E5FA084B1B68012BF9D18021D8
:100E9C00064800F0AEFF4FF47A7000F02FFBF0E73D
:100EAC00B000002040000020940000200008014009
:100EBC0080B590B000AF07F1180328220021184626
:100ECC0001F0A2FF3B1D00221A605A609A60DA60A2
:100EDC001A610223BB610123BB621023FB62002356
:100EEC007B6307F11803184600F09CFF0346002BA8
:100EFC0001D000F0E6F80F237B600023BB600023D9
:100F0C00FB6000233B6100237B613B1D00211846E5
:100F1C0001F008FA0346002B01D000F0D2F800BF14
:100F2C004037BD4680BD000080B586B000AF07F1EC
:100F3C00080300221A605A609A60DA603B4600226D
:100F4C001A605A601D4B4FF080421A601B4B41F6E1
:100F5C003F725A60194B00229A60184B0922DA60D2
:100F6C00164B00221A61154B00229A61134801F0AE
:100F7C003FFB0346002B01D000F0A3F84FF4805345
:100F8C00BB6007F1080319460C4801F0D5FC034679
:100F9C00002B01D000F095F800233B6000237B6010
:100FAC003B461946054801F0A1FE0346002B01D033
:100FBC0000F087F800BF1837BD4680BDB000002098
:100FCC0080B588B000AF07F1100300221A605A6098
:100FDC009A60DA602E4B9B692D4A43F010039361A3
:100FEC002B4B9B6903F01003FB60FB68284B9B6940
:100FFC00274A43F004039361254B9B6903F00403D8
:10100C00BB60BB68224B9B69214A43F00803936188
:10101C001F4B9B6903F008037B607B680022FE2159
:10102C001C4800F0CEFE00224FF6FF711A4800F06B
:10103C00C8FE4FF460433B6100237B610123BB611D
:10104C0007F110031946154800F02AFDFE233B61F9
:10105C0001237B610023BB610223FB6107F11003B9
:10106C0019460C4800F01CFD4FF6FF733B61012341
:10107C007B610023BB610223FB6107F1100319465E
:10108C00054800F00DFD00BF2037BD4680BD00BFF8
:10109C000010024000080140000C0140001001400B
:1010AC0080B582B000AF78607B681B68B3F1804F6D
:1010BC0003D100F08FFAFFF737F900BF0837BD46B0
:1010CC0080BD80B400AF72B600BFFEE780B500AF44
:1010DC00012202210E4800F074FE012204210C486A
:1010EC0000F06FFE01220821094800F06AFE01227F
:1010FC001021074800F065FE01222021044800F071
:10110C0060FE01224021024800F05BFE00BF80BD62
:10111C000008014080B500AF0E4B00221A700E4B38
:10112C001B68184600F02EFA0C4B1B68184600F092
:10113C003DFAFFF7CBFF4FF47A7000F0BDF94FF496
:10114C00FA7000F0FDF94FF4FA7000F0D7F900BF17
:10115C0080BD00BF84000020440000204C00002013
:10116C0080B500AF7C4B1B68012B1FD17B4B1B68E0
:10117C00012B17D17A4B1B68013B794A1360784BD2
:10118C001B68002B02DC774B01221A60764B1B6824
:10119C00013B754A1360744B1B68002B02DC734BCC
:1011AC0001221A604FF47A7000F086F9704B1B78AC
:1011BC00032B00F2CD8001A252F823F0D9110008C4
:1011CC00351200089B120008F7120008654B1B68CB
:1011DC00012B0FD1664B02221A70FFF777FF654B7C
:1011EC001B68184600F0CEF9634B1B68184600F0DC
:1011FC00DDF9AEE05D4B1B68012B0AD15C4B012283
:10120C001A70FFF763FF5B4B1B68184600F0CEF9B2
:10121C009FE000220221594800F0D3FD002240211A
:10122C00564800F0CEFD94E04E4B1B68012B0FD1BD
:10123C004F4B02221A70FFF749FF514B1B6818469F
:10124C0000F0A0F94C4B1B68184600F0AFF980E099
:10125C00464B1B68012B0FD1454B02221A70FFF72E
:10126C0035FF474B1B68184600F08CF9424B1B6846
:10127C00184600F09BF96CE0002202213F4800F078
:10128C00A0FD002220213D4800F09BFD61E0374B82
:10129C001B68012B0FD1364B00221A70FFF716FF7B
:1012AC00354B1B68184600F06DF9354B1B6818461A
:1012BC0000F07CF94DE02B4B1B68012B0AD12C4B19
:1012CC0003221A70FFF702FF2A4B1B68184600F026
:1012DC0059F93EE000220821284800F072FD002256
:1012EC001021264800F06DFD33E0204B1B68012BCC
:1012FC000FD11F4B00221A70FFF7E8FE1E4B1B6824
:10130C00184600F03FF91E4B1B68184600F04EF9CA
:10131C001FE0144B1B68012B0FD1154B00221A70C8
:10132C00FFF7D4FE144B1B68184600F02BF9144B36
:10133C001B68184600F03AF90BE0002204210F4814
:10134C0000F03FFD002210210C4800F03AFD00E0B7
:10135C0000BF00BF80BD00BF8C0000203C000020FF
:10136C00A0000020A4000020A8000020AC00002059
:10137C0084000020480000204400002000080140A8
:10138C004C00002080B500AF0C4B1B68012B0BD11F
:10139C0002210B4800F02DFD1021094800F029FD19
:1013AC004FF4FA7000F0CCF80220FFF7FFFC054B6D
:1013BC001B681846FFF71EFD00BF80BD980000207B
:1013CC00000801405000002080B500AF0C4B1B689A
:1013DC00012B0BD104210B4800F00BFD20210948F7
:1013EC0000F007FD4FF4FA7000F0AAF80320FFF7A5
:1013FC00DDFC054B1B681846FFF7FCFC00BF80BDED
:10140C0098000020000801405400002080B500AF77
:10141C000C4B1B68012B0BD108210B4800F0E9FC8D
:10142C004021094800F0E5FC4FF4FA7000F088F810
:10143C000420FFF7BBFC054B1B681846FFF7DAFCD2
:10144C0000BF80BD9800002000080140580000201B
:10145C0080B500AF154B1B68013B032B20D801A2B4
:10146C0052F823F0811400089B140008A114000802
:10147C00A7140008FFF774FE0D4B1B681846FFF706
:10148C0095FC0C4B1B681846FFF7B4FC0CE0FFF7FF
:10149C0079FF09E0FFF798FF06E0FFF7B7FF03E0DD
:1014AC00024B01221A6000BF00BF80BD3C0000202F
:1014BC00A0000020A800002080B483B000AF7860AA
:1014CC000A4B1B687A6802FB03F3094A82FB03127E
:1014DC009211DB17D31A074A1360074B00221A60CC
:1014EC0000BF0C37BD4680BC704700BF40000020D9
:1014FC00D34D6210880000208C00002080B483B093
:10150C0000AF78600A4B1B687A6802FB03F3094A48
:10151C0082FB03129211DB17D31A074A1360074B95
:10152C0000221A6000BF0C37BD4680BC704700BF5C
:10153C0040000020D34D6210900000209400002049
:10154C0080B483B000AF78600A4B1B687A6802FBEA
:10155C0003F3094A82FB03129211DB17D31A074AD1
:10156C001360074B00221A6000BF0C37BD4680BCCD
:10157C00704700BF40000020D34D62109C0000203B
:10158C009800002080B483B000AF7860054A7B6877
:10159C001360054B00221A6000BF0C37BD4680BC9F
:1015AC00704700BFA0000020A400002080B483B0CE
:1015BC0000AF7860054A7B681360054B00221A6007
:1015CC0000BF0C37BD4680BC704700BFA800002090
:1015DC00AC00002080B400AF194B1B68002B0BDD56
:1015EC00174B1B68013B164A1360154B1B68002BED
:1015FC0002DC144B01221A60134B1B68002B0BDD11
:10160C00114B1B68013B104A13600F4B1B68002BDE
:10161C0002DC0E4B01221A600D4B1B68002B0BDDFC
:10162C000B4B1B68013B0A4A1360094B1B68002BD0
:10163C0002DC084B01221A6000BFBD4680BC70471B
:10164C00880000208C0000209C00002098000020C6
:10165C00900000209400002080B485B000AF154BA2
:10166C009B69144A43F001039361124B9B6903F08D
:10167C000103BB60BB680F4BDB690E4A43F0805320
:10168C00D3610C4BDB6903F080537B607B680A4BA6
:10169C005B68FB60FB6823F0E063FB60FB6843F076
:1016AC008063FB60044AFB68536000BF1437BD467F
:1016BC0080BC7047001002400000014080B584B02F
:1016CC0000AF78607B681B68B3F1804F13D10C4B73
:1016DC00DB690B4A43F00103D361094BDB6903F06F
:1016EC000103FB60FB68002200211C2000F0A1F923
:1016FC001C2000F0BAF900BF1037BD4680BD00BFFA
:10170C000010024080B400AFFEE780B400AFFEE7EB
:10171C0080B400AFFEE780B400AFFEE780B400AF4A
:10172C00FEE780B400AF00BFBD4680BC704780B4FC
:10173C0000AF00BFBD4680BC704780B400AF00BF97
:10174C00BD4680BC704780B500AF00F07FF800BF8D
:10175C0080BD000080B500AF024800F0E5FF00BF7F
:10176C0080BD00BFB000002080B400AF00BFBD46FC
:10177C0080BC7047FFF7F8FF0B480C490C4A00235C
:10178C0002E0D458C4500433C4188C42F9D3094A2B
:10179C00094C002301E013600432A242FBD301F098
:1017AC000FFBFFF74BFB7047000000206800002088
:1017BC00682E000868000020FC000020FEE70000F6
:1017CC0080B500AF084B1B68074A43F01003136049
:1017DC00032000F023F90F2000F008F8FFF73CFF7E
:1017EC000023184680BD00BF0020024080B582B0A7
:1017FC0000AF7860124B1A68124B1B7819464FF4E5
:10180C007A73B3FBF1F3B2FBF3F3184600F03BF938
:10181C000346002B01D001230EE07B680F2B0AD866
:10182C00002279684FF0FF3000F003F9064A7B681C
:10183C001360002300E0012318460837BD4680BD25
:10184C005C000020640000206000002080B400AF29
:10185C00054B1B781A46054B1B681344034A13604F
:10186C0000BFBD4680BC704764000020F80000201B
:10187C0080B400AF024B1B681846BD4680BC704755
:10188C00F800002080B485B000AF78607B6803F06E
:10189C000703FB600C4BDB68BB60BA684FF6FF03B9
:1018AC001340BB60FB681A02BB68134343F0BF6371
:1018BC0043F40033BB60044ABB68D36000BF1437E9
:1018CC00BD4680BC704700BF00ED00E080B400AFA7
:1018DC00044BDB681B0A03F007031846BD4680BCAB
:1018EC00704700BF00ED00E080B483B000AF03464A
:1018FC00FB7197F90730002B0BDBFB7903F01F0210
:10190C00064997F907305B09012000FA02F241F809
:10191C00232000BF0C37BD4680BC704700E100E0BF
:10192C0080B483B000AF03463960FB7197F9073080
:10193C00002B0ADB3B68DAB20C4997F9073012012D
:10194C00D2B20B4483F800230AE03B68DAB20849B0
:10195C00FB7903F00F03043B1201D2B20B441A764D
:10196C0000BF0C37BD4680BC704700BF00E100E0F3
:10197C0000ED00E080B489B000AFF860B9607A6027
:10198C00FB6803F00703FB61FB69C3F10703042B3E
:10199C0028BF0423BB61FB690433062B02D9FB6906
:1019AC00033B00E000237B614FF0FF32BB6902FA7E
:1019BC0003F3DA43BB681A407B699A404FF0FF315E
:1019CC007B6901FA03F3D9437B680B401343184638
:1019DC002437BD4680BC704780B582B000AF7860BC
:1019EC007B68013BB3F1807F01D301230FE00A4AEE
:1019FC007B68013B53600F214FF0FF30FFF790FFE6
:101A0C00054B00229A60044B07221A6000231846EB
:101A1C000837BD4680BD00BF10E000E080B582B045
:101A2C0000AF78607868FFF72DFF00BF0837BD4620
:101A3C0080BD80B586B000AF0346B9607A60FB7399
:101A4C0000237B61FFF742FF78617A68B968786997
:101A5C00FFF790FF024697F90F3011461846FFF733
:101A6C005FFF00BF1837BD4680BD80B582B000AFA8
:101A7C000346FB7197F907301846FFF735FF00BF97
:101A8C000837BD4680BD80B582B000AF78607868FD
:101A9C00FFF7A2FF034618460837BD4680BD00007D
:101AAC0080B48BB000AF7860396000237B62002378
:101ABC003B6248E101227B6A02FA03F3FB613B685B
:101ACC001B68FA691340BB61BA69FB699A4240F022
:101ADC0037813B685B68A34A93425ED0A14A93422C
:101AEC0075D8A14A934258D09F4A93426FD89F4AC7
:101AFC00934252D09D4A934269D89D4A93424CD00E
:101B0C009B4A934263D89B4A934246D0994A93424C
:101B1C005DD8122B2AD8122B59D801A252F823F0D7
:101B2C00A71B0008811B0008931B0008D51B00088D
:101B3C00DB1B0008DB1B0008DB1B0008DB1B0008A1
:101B4C00DB1B0008DB1B0008DB1B0008DB1B000891
:101B5C00DB1B0008DB1B0008DB1B0008DB1B000881
:101B6C00DB1B0008891B00089D1B0008824A93425E
:101B7C0013D02CE03B68DB683B6229E03B68DB68F8
:101B8C0004333B6224E03B68DB6808333B621FE0B4
:101B9C003B68DB680C333B621AE03B689B68002BAC
:101BAC0002D104233B6213E03B689B68012B05D1F7
:101BBC0008233B627B68FA691A6109E008233B62DF
:101BCC007B68FA695A6103E000233B6200E000BFC6
:101BDC00BB69FF2B01D87B6801E07B6804337B6118
:101BEC00BB69FF2B02D87B6A9B0002E07B6A083B37
:101BFC009B003B617B691A680F213B6901FA03F377
:101C0C00DB431A40396A3B6901FA03F31A437B69D7
:101C1C001A603B685B6803F08053002B00F09080E7
:101C2C00564B9B69554A43F001039361534B9B6997
:101C3C0003F00103BB60BB68514A7B6A9B0802330B
:101C4C0052F82330FB607B6A03F003039B000F22E6
:101C5C0002FA03F3DB43FA681340FB607B68494AE2
:101C6C0093420DD07B68484A934207D07B68474A21
:101C7C00934201D1022304E0032302E0012300E09C
:101C8C0000237A6A02F0030292009340FA6813432D
:101C9C00FB603B497B6A9B080233FA6841F82320BE
:101CAC003B685B6803F48013002B06D0384B9A68B2
:101CBC003749BB6913438B6006E0354B9A68BB69A7
:101CCC00DB43334913408B603B685B6803F40013C0
:101CDC00002B06D02E4BDA682D49BB691343CB6021
:101CEC0006E02B4BDA68BB69DB4329491340CB6018
:101CFC003B685B6803F40033002B06D0244B5A6816
:101D0C002349BB6913434B6006E0214B5A68BB69FE
:101D1C00DB431F4913404B603B685B6803F4803323
:101D2C00002B06D01A4B1A681949BB6913430B6078
:101D3C0006E0174B1A68BB69DB43154913400B606F
:101D4C007B6A01337B623B681A687B6A22FA03F375
:101D5C00002B7FF4AFAE00BF00BF2C37BD4680BC5C
:101D6C00704700BF0000321000003110000022103C
:101D7C000000211000001210000011100010024091
:101D8C000000014000080140000C0140001001401F
:101D9C000004014080B485B000AF78600B467B80B6
:101DAC007B689A687B881340002B02D00123FB735D
:101DBC0001E00023FB73FB7B18461437BD4680BC47
:101DCC00704780B483B000AF78600B467B801346BD
:101DDC007B707B78002B03D07A887B681A6103E0D8
:101DEC007B881A047B681A6100BF0C37BD4680BC27
:101DFC00704780B485B000AF78600B467B807B6801
:101E0C00DB68FB607A88FB6813401A04FB68D943D3
:101E1C007B880B401A437B681A6100BF1437BD46A0
:101E2C0080BC704780B586B000AF78607B68002BB3
:101E3C0001D101236CE27B681B6803F00103002BCA
:101E4C0000F08780924B5B6803F00C03042B0CD0E2
:101E5C008F4B5B6803F00C03082B12D18C4B5B6827
:101E6C0003F48033B3F5803F0BD1894B1B6803F42B
:101E7C000033002B6CD07B685B68002B68D101238E
:101E8C0046E27B685B68B3F5803F06D1804B1B68EC
:101E9C007F4A43F4803313602EE07B685B68002B31
:101EAC000CD17B4B1B687A4A23F480331360784B3C
:101EBC001B68774A23F4802313601DE07B685B6802
:101ECC00B3F5A02F0CD1724B1B68714A43F48023DD
:101EDC0013606F4B1B686E4A43F4803313600BE046
:101EEC006B4B1B686A4A23F480331360684B1B6886
:101EFC00674A23F4802313607B685B68002B13D044
:101F0C00FFF7B6FC386108E0FFF7B2FC02463B690C
:101F1C00D31A642B01D90323FAE15D4B1B6803F43C
:101F2C000033002BF0D014E0FFF7A2FC386108E07E
:101F3C00FFF79EFC02463B69D31A642B01D903239D
:101F4C00E6E1534B1B6803F40033002BF0D100E0A7
:101F5C0000BF7B681B6803F00203002B63D04C4B63
:101F6C005B6803F00C03002B0BD0494B5B6803F050
:101F7C000C03082B1CD1464B5B6803F48033002BFD
:101F8C0016D1434B1B6803F00203002B05D07B6872
:101F9C001B69012B01D00123BAE13D4B1B6823F0D7
:101FAC00F8027B685B69DB00394913430B603AE04C
:101FBC007B681B69002B20D0364B01221A60FFF77F
:101FCC0057FC386108E0FFF753FC02463B69D31A13
:101FDC00022B01D903239BE12D4B1B6803F0020359
:101FEC00002BF0D02A4B1B6823F0F8027B685B694E
:101FFC00DB00274913430B6015E0264B00221A60C7
:10200C00FFF736FC386108E0FFF732FC02463B690B
:10201C00D31A022B01D903237AE11D4B1B6803F061
:10202C000203002BF0D17B681B6803F00803002B24
:10203C003AD07B689B69002B19D0174B01221A6090
:10204C00FFF716FC386108E0FFF712FC02463B690B
:10205C00D31A022B01D903235AE10D4B5B6A03F00F
:10206C000203002BF0D0012000F0A4FA1CE00A4B74
:10207C0000221A60FFF7FCFB38610FE0FFF7F8FB5A
:10208C0002463B69D31A022B08D9032340E100BF57
:10209C000010024000004242800442429E4B5B6AA8
:1020AC0003F00203002BE9D17B681B6803F00403E7
:1020BC00002B00F0A6800023FB75974BDB6903F027
:1020CC008053002B0DD1944BDB69934A43F0805322
:1020DC00D361914BDB6903F08053BB60BB68012378
:1020EC00FB758E4B1B6803F48073002B18D18B4B44
:1020FC001B688A4A43F480731360FFF7B9FB38619D
:10210C0008E0FFF7B5FB02463B69D31A642B01D9F3
:10211C000323FDE0814B1B6803F48073002BF0D08C
:10212C007B68DB68012B06D17B4B1B6A7A4A43F038
:10213C00010313622DE07B68DB68002B0CD1764B1E
:10214C001B6A754A23F001031362734B1B6A724AB4
:10215C0023F0040313621CE07B68DB68052B0CD1B5
:10216C006D4B1B6A6C4A43F0040313626A4B1B6A87
:10217C00694A43F0010313620BE0674B1B6A664A22
:10218C0023F001031362644B1B6A634A23F00403BC
:10219C0013627B68DB68002B15D0FFF769FB386195
:1021AC000AE0FFF765FB02463B69D31A41F288321D
:1021BC00934201D90323ABE0574B1B6A03F0020394
:1021CC00002BEED014E0FFF753FB38610AE0FFF769
:1021DC004FFB02463B69D31A41F28832934201D934
:1021EC00032395E04C4B1B6A03F00203002BEED14A
:1021FC00FB7D012B05D1484BDB69474A23F080530B
:10220C00D3617B68DB69002B00F08180424B5B68FB
:10221C0003F00C03082B61D07B68DB69022B46D1E1
:10222C003F4B00221A60FFF723FB386108E0FFF7F1
:10223C001FFB02463B69D31A022B01D9032367E02B
:10224C00354B1B6803F00073002BF0D17B681B6AC5
:10225C00B3F5803F08D1304B5B6823F400327B68C8
:10226C009B682D4913434B602B4B5B6823F4741212
:10227C007B68196A7B685B6A0B43274913434B6085
:10228C00274B01221A60FFF7F3FA386108E0FFF7D9
:10229C00EFFA02463B69D31A022B01D9032337E02C
:1022AC001D4B1B6803F00073002BF0D02FE01C4B70
:1022BC0000221A60FFF7DCFA386108E0FFF7D8FA61
:1022CC0002463B69D31A022B01D9032320E0124B9F
:1022DC001B6803F00073002BF0D118E07B68DB69FE
:1022EC00012B01D1012313E00B4B5B68FB60FB68F6
:1022FC0003F480327B681B6A9A4206D1FB6803F4B4
:10230C0070127B685B6A9A4201D0012300E00023C3
:10231C0018461837BD4680BD0010024000700040C2
:10232C006000424280B584B000AF786039607B6851
:10233C00002B01D10123D0E06A4B1B6803F007038B
:10234C003A689A4210D9674B1B6823F0070265491B
:10235C003B6813430B60634B1B6803F007033A683D
:10236C009A4201D00123B8E07B681B6803F002039A
:10237C00002B20D07B681B6803F00403002B05D0D6
:10238C00594B5B68584A43F4E06353607B681B68A5
:10239C0003F00803002B05D0534B5B68524A43F4FF
:1023AC0060535360504B5B6823F0F0027B689B6872
:1023BC004D4913434B607B681B6803F00103002BF2
:1023CC0040D07B685B68012B07D1474B1B6803F43B
:1023DC000033002B15D101237FE07B685B68022B57
:1023EC0007D1414B1B6803F00073002B09D101236B
:1023FC0073E03D4B1B6803F00203002B01D101235A
:10240C006BE0394B5B6823F003027B685B683649F1
:10241C0013434B60FFF72CFAF8600AE0FFF728FA39
:10242C000246FB68D31A41F28832934201D9032346
:10243C0053E02D4B5B6803F00C027B685B689B00E0
:10244C009A42EBD1274B1B6803F007033A689A4278
:10245C0010D2244B1B6823F0070222493B6813431C
:10246C000B60204B1B6803F007033A689A4201D0BB
:10247C00012332E07B681B6803F00403002B08D0B7
:10248C00194B5B6823F4E0627B68DB6816491343E5
:10249C004B607B681B6803F00803002B09D0124BC0
:1024AC005B6823F460527B681B69DB000E491343A5
:1024BC004B6000F021F802460B4B5B681B0903F0E4
:1024CC000F030A49CB5C22FA03F3094A1360094B48
:1024DC001B681846FFF78AF9002318461037BD46CB
:1024EC0080BD00BF00200240001002403C2E0008BE
:1024FC005C0000206000002080B487B000AF002397
:10250C00FB600023BB6000237B6100237B60002306
:10251C003B611E4B5B68FB60FB6803F00C03042BF8
:10252C0002D0082B03D027E0194B3B6127E0FB6856
:10253C009B0C03F00F03174AD35C7B60FB6803F41E
:10254C008033002B10D0114B5B685B0C03F0010344
:10255C00114AD35CBB607B680D4A02FB03F2BB687B
:10256C00B2FBF3F37B6104E07B680C4A02FB03F3E0
:10257C007B617B693B6102E0054B3B6100BF3B69C2
:10258C0018461C37BD4680BC704700BF0010024087
:10259C0000127A004C2E00085C2E000800093D0049
:1025AC0080B400AF024B1B681846BD4680BC704718
:1025BC005C00002080B485B000AF78600A4B1B68CB
:1025CC000A4AA2FB03235B0A7A6802FB03F3FB6053
:1025DC0000BFFB685A1EFA60002BF9D100BF00BF88
:1025EC001437BD4680BC70475C000020D34D621090
:1025FC0080B582B000AF78607B68002B01D10123DD
:10260C0041E07B6893F83D30DBB2002B06D17B6850
:10261C00002283F83C207868FFF750F87B68022290
:10262C0083F83D207B681A687B6804331946104692
:10263C0000F06EFA7B68012283F846207B68012249
:10264C0083F83E207B68012283F83F207B680122BF
:10265C0083F840207B68012283F841207B680122AB
:10266C0083F842207B68012283F843207B68012297
:10267C0083F844207B68012283F845207B68012283
:10268C0083F83D20002318460837BD4680BD000066
:10269C0080B485B000AF78607B6893F83D30DBB2D6
:1026AC00012B01D0012335E07B68022283F83D2009
:1026BC007B681B68DA687B681B6842F00102DA6091
:1026CC007B681B68164A934209D07B681B68B3F180
:1026DC00804F04D07B681B68124A934211D17B68EF
:1026EC001B689B6803F00703FB60FB68062B10D08C
:1026FC007B681B681A687B681B6842F001021A60D1
:10270C0007E07B681B681A687B681B6842F0010253
:10271C001A60002318461437BD4680BC704700BFB2
:10272C00002C01400004004080B582B000AF7860FE
:10273C007B681B681B6903F00203022B22D17B68A8
:10274C001B68DB6803F00203022B1BD17B681B6840
:10275C006FF002021A617B6801221A777B681B6892
:10276C009B6903F00303002B03D0786800F0B4F9E5
:10277C0005E0786800F0A7F9786800F0B6F97B6896
:10278C0000221A777B681B681B6903F00403042B77
:10279C0022D17B681B68DB6803F00403042B1BD17C
:1027AC007B681B686FF004021A617B6802221A773F
:1027BC007B681B689B6903F44073002B03D078681B
:1027CC0000F08AF905E0786800F07DF9786800F08F
:1027DC008CF97B6800221A777B681B681B6903F0F5
:1027EC000803082B22D17B681B68DB6803F0080305
:1027FC00082B1BD17B681B686FF008021A617B6881
:10280C0004221A777B681B68DB6903F00303002B37
:10281C0003D0786800F060F905E0786800F053F9AF
:10282C00786800F062F97B6800221A777B681B6875
:10283C001B6903F01003102B22D17B681B68DB682B
:10284C0003F01003102B1BD17B681B686FF0100278
:10285C001A617B6808221A777B681B68DB6903F4B2
:10286C004073002B03D0786800F036F905E07868E7
:10287C0000F029F9786800F038F97B6800221A77A3
:10288C007B681B681B6903F00103012B0ED17B686D
:10289C001B68DB6803F00103012B07D17B681B6805
:1028AC006FF001021A617868FEF7FAFB7B681B680F
:1028BC001B6903F08003802B0ED17B681B68DB68DF
:1028CC0003F08003802B07D17B681B686FF08002BC
:1028DC001A61786800F06BFA7B681B681B6903F05F
:1028EC004003402B0ED17B681B68DB6803F0400370
:1028FC00402B07D17B681B686FF040021A61786827
:10290C0000F0FCF87B681B681B6903F02003202B8C
:10291C000ED17B681B68DB6803F02003202B07D1EA
:10292C007B681B686FF020021A61786800F036FA39
:10293C0000BF0837BD4680BD80B584B000AF78605D
:10294C0039600023FB737B6893F83C30012B01D179
:10295C000223B4E07B68012283F83C207B680222CE
:10296C0083F83D207B681B689B68BB60BB6823F0C9
:10297C007703BB60BB6823F47F43BB607B681B6839
:10298C00BA689A603B681B68B3F5005F3ED0B3F53C
:10299C00005F00F28780B3F5805F00F08680B3F5AE
:1029AC00805F7FD8702B1AD0702B7BD8602B50D0C7
:1029BC00602B77D8502B3CD0502B73D8402B58D051
:1029CC00402B6FD8302B64D0302B6BD8202B60D0A1
:1029DC00202B67D8002B5CD0102B5AD062E07B6880
:1029EC0018683B6899683B685A683B68DB6800F07C
:1029FC005EF97B681B689B68BB60BB6843F0770320
:102A0C00BB607B681B68BA689A604FE07B6818688B
:102A1C003B6899683B685A683B68DB6800F047F98B
:102A2C007B681B689A687B681B6842F480429A60DA
:102A3C003CE07B6818683B6859683B68DB681A4661
:102A4C0000F0BEF87B681B685021184600F015F9A1
:102A5C002CE07B6818683B6859683B68DB681A4651
:102A6C0000F0DCF87B681B686021184600F005F963
:102A7C001CE07B6818683B6859683B68DB681A4641
:102A8C0000F09EF87B681B684021184600F0F5F8B2
:102A9C000CE07B681A683B681B681946104600F00E
:102AAC00ECF803E00123FB7300E000BF7B6801221C
:102ABC0083F83D207B68002283F83C20FB7B184682
:102ACC001037BD4680BD80B483B000AF786000BFC6
:102ADC000C37BD4680BC704780B483B000AF7860C3
:102AEC0000BF0C37BD4680BC704780B483B000AFCC
:102AFC00786000BF0C37BD4680BC704780B483B093
:102B0C0000AF786000BF0C37BD4680BC704700003A
:102B1C0080B485B000AF786039607B681B68FB605F
:102B2C007B68254A934207D07B68B3F1804F03D072
:102B3C007B68224A934208D1FB6823F07003FB6048
:102B4C003B685B68FA681343FB607B681A4A9342E4
:102B5C0007D07B68B3F1804F03D07B68174A934250
:102B6C0008D1FB6823F44073FB603B68DB68FA68B0
:102B7C001343FB60FB6823F080023B685B691343E3
:102B8C00FB607B68FA681A603B689A687B68DA625B
:102B9C003B681A687B689A627B68074A934203D148
:102BAC003B681A697B681A637B6801225A6100BF13
:102BBC001437BD4680BC7047002C01400004004017
:102BCC0080B487B000AFF860B9607A60FB681B6AAC
:102BDC007B61FB681B6A23F00102FB681A62FB68CD
:102BEC009B693B613B6923F0F0033B617B681B01F4
:102BFC003A6913433B617B6923F00A037B617A6971
:102C0C00BB6813437B61FB683A699A61FB687A691C
:102C1C001A6200BF1C37BD4680BC704780B487B0B9
:102C2C0000AFF860B9607A60FB681B6A7B61FB6877
:102C3C001B6A23F01002FB681A62FB689B693B61FC
:102C4C003B6923F470433B617B681B033A69134374
:102C5C003B617B6923F0A0037B61BB681B017A6934
:102C6C0013437B61FB683A699A61FB687A691A6263
:102C7C0000BF1C37BD4680BC704780B485B000AF28
:102C8C00786039607B689B68FB60FB6823F070039D
:102C9C00FB603A68FB68134343F00703FB607B68F7
:102CAC00FA689A6000BF1437BD4680BC704780B488
:102CBC0087B000AFF860B9607A603B60FB689B68D6
:102CCC007B617B6923F47F437B613B681A027B68E1
:102CDC001A43BB6813437A6913437B61FB687A69B7
:102CEC009A6000BF1C37BD4680BC704780B485B06D
:102CFC0000AF786039607B6893F83C30012B01D1D0
:102D0C00022341E07B68012283F83C207B6802228D
:102D1C0083F83D207B681B685B68FB607B681B68E5
:102D2C009B68BB60FB6823F07003FB603B681B680F
:102D3C00FA681343FB607B681B68FA685A607B680F
:102D4C001B68144A934209D07B681B68B3F1804F0F
:102D5C0004D07B681B68104A93420CD1BB6823F0EB
:102D6C008003BB603B685B68BA681343BB607B68DD
:102D7C001B68BA689A607B68012283F83D207B68E7
:102D8C00002283F83C20002318461437BD4680BC33
:102D9C00704700BF002C01400004004080B483B099
:102DAC0000AF786000BF0C37BD4680BC704780B464
:102DBC0083B000AF786000BF0C37BD4680BC704755
:102DCC0070B500260C4D0D4C641BA410A64209D105
:102DDC0000F022F800260A4D0A4C641BA410A642EF
:102DEC0005D170BD55F8043B98470136EEE755F810
:102DFC00043B98470136F2E7602E0008602E00086D
:102E0C00602E0008642E000803460244934200D151
:102E1C00704703F8011BF9E7F8B500BFF8BC08BC14
:102E2C009E467047F8B500BFF8BC08BC9E4670477C
:102E3C00000000000000000001020304060708095E
:102E4C0002030405060708090A0B0C0D0E0F1010DF
:042E5C00010200006F
:042E60003101000834
:042E64000D01000854
:102E68000100000001000000010000000100000056
:102E78000100000001000000010000000100000046
:102E88000100000001000000010000000100000036
:102E980064000000640000006400000001000000FD
:102EA800010000000500000002000000030000000F
:102EB8000500000002000000030000000024F400E8
:082EC8001000000001000000F1
:040000050800178157
:00000001FF
