:020000040800F2
:1000000000280020DD1000086D10000873100008A3
:10001000791000087F10000885100008000000001B
:100020000000000000000000000000008B1000082D
:100030009710000800000000A3100008AF1000088F
:1000400025110008251100082511000825110008B8
:1000500025110008251100082511000825110008A8
:100060002511000825110008251100082511000898
:100070002511000825110008251100082511000888
:100080002511000825110008251100082511000878
:100090002511000825110008251100082511000868
:1000A0002511000825110008251100082511000858
:1000B000BD100008251100080000000025110008EF
:1000C00025110008000000000000000025110008B4
:1000D00000000000251100082511000800000000A4
:1000E0002511000825110008251100080000000056
:1000F0000000000000000000000000000000000000
:0C01000000000000000000005FF808F1A3
:10010C0010B5054C237833B9044B13B10448AFF345
:10011C0000800123237010BD480000200000000067
:10012C006C27000808B5034B1BB103490348AFF318
:10013C00008008BD000000004C0000206C27000867
:10014C0080B582B000AF78607B68022B13D07B68DF
:10015C00022B15DC7B68002B03D07B68012B05D0B0
:10016C000EE00221094801F0F2FA0AE004210748E6
:10017C0001F0EDFA05E00821044801F0E8FA00E08E
:10018C0000BF00BF0837BD4680BD00BF000801405E
:10019C0080B582B000AF78607B68022B13D07B688F
:1001AC00022B15DC7B68002B03D07B68012B05D060
:1001BC000EE00221094801F0CAFA0AE004210748BE
:1001CC0001F0C5FA05E00821044801F0C0FA00E08E
:1001DC0000BF00BF0837BD4680BD00BF000801400E
:1001EC0080B582B000AF00237B608EE04B4A7B6809
:1001FC0052F823204A497B6841F82320494A7B68FE
:10020C0052F8232045497B6841F823207B68002B5A
:10021C000AD14FF40051444801F06AFA03461946DA
:10022C00404A7B6842F823107B68012B0AD14FF4BB
:10023C0080413D4801F05CFA03461946394A7B6817
:10024C0042F823107B68022B0AD14FF40041364848
:10025C0001F04EFA03461946324A7B6842F82310E5
:10026C002F4A7B6852F823202C497B6851F82330A5
:10027C009A4247D1294A7B6852F8232029497B6846
:10028C0051F823309A423DD1284A7B6852F82320FA
:10029C0024497B6851F823309A4216D0214A7B6856
:1002AC0052F8232021497B6841F823201D4A7B68A2
:1002BC0052F82330002B25D11D4A7B68642142F86B
:1002CC0023107868FFF73CFF1CE0194A7B6852F852
:1002DC0023305A1E16497B6841F82320144A7B6848
:1002EC0052F82330002B0DDC114A7B68642142F854
:1002FC0023100C4A7B6852F82330002B02D178680B
:10030C00FFF746FF7B6801337B607B68022B7FF72E
:10031C006DAF00BF00BF0837BD4680BD0C0000208C
:10032C0000000020180000200010014024000020D4
:10033C003000002080B582B000AF78607B68092B5C
:10034C0000F2EA8001A252F823F000BF81030008FA
:10035C00AB030008D5030008FF03000829040008BC
:10036C00530400087D040008A7040008D104000809
:10037C00FB04000800220121764801F0D0F900228C
:10038C000221744801F0CBF900220421714801F0DC
:10039C00C6F9002208216F4801F0C1F9D5E000220E
:1003AC0001216C4801F0BBF900220221694801F0DF
:1003BC00B6F900220421674801F0B1F901220821A5
:1003CC00644801F0ACF9C0E000220121614801F061
:1003DC00A6F9002202215F4801F0A1F901220421B3
:1003EC005C4801F09CF9002208215A4801F097F969
:1003FC00ABE000220121574801F091F900220221C3
:10040C00544801F08CF901220421524801F087F97B
:10041C00012208214F4801F082F996E000220121C7
:10042C004C4801F07CF9012202214A4801F077F98D
:10043C0000220421474801F072F9002208214548A6
:10044C0001F06DF981E000220121424801F067F9C9
:10045C00012202213F4801F062F9002204213D48AB
:10046C0001F05DF9012208213A4801F058F96CE0DD
:10047C0000220121374801F052F9012202213548AE
:10048C0001F04DF901220421324801F048F9002213
:10049C000821304801F043F957E0002201212D4892
:1004AC0001F03DF9012202212A4801F038F901221C
:1004BC000421284801F033F901220821254801F0D4
:1004CC002EF942E001220121224801F028F90022F4
:1004DC000221204801F023F9002204211D4801F0DB
:1004EC001EF9002208211B4801F019F92DE0012208
:1004FC000121184801F013F900220221154801F0DE
:10050C000EF900220421134801F009F901220821F7
:10051C00104801F004F918E000224FF480510D4806
:10052C0001F0FDF800224FF400510A4801F0F7F8F1
:10053C0000224FF48041074801F0F1F800224FF4FB
:10054C000041044801F0EBF800BF00BF0837BD467E
:10055C0080BD00BF000C014080B582B000AF786058
:10056C007B68092B00F2EA8001A252F823F000BF4D
:10057C00A5050008CF050008F905000823060008AA
:10058C004D06000877060008A1060008CB060008F7
:10059C00F50600081F07000800221021764801F01C
:1005AC00BEF800222021744801F0B9F80022402145
:1005BC00714801F0B4F8002280216F4801F0AFF8C7
:1005CC00D5E0002210216C4801F0A9F8002220216E
:1005DC00694801F0A4F800224021674801F09FF817
:1005EC0001228021644801F09AF8C0E00022102119
:1005FC00614801F094F8002220215F4801F08FF847
:10060C00012240215C4801F08AF8002280215A48DE
:10061C0001F085F8ABE000221021574801F07FF87B
:10062C0000222021544801F07AF80122402152483E
:10063C0001F075F8012280214F4801F070F896E026
:10064C00002210214C4801F06AF8012220214A486E
:10065C0001F065F800224021474801F060F80022C3
:10066C008021454801F05BF881E0002210214248CE
:10067C0001F055F8012220213F4801F050F80022EA
:10068C0040213D4801F04BF8012280213A4801F00D
:10069C0046F86CE000221021374801F040F80122A6
:1006AC002021354801F03BF801224021324801F06D
:1006BC0036F800228021304801F031F857E0002252
:1006CC0010212D4801F02BF8012220212A4801F09D
:1006DC0026F801224021284801F021F8012280212E
:1006EC00254801F01CF842E001221021224801F0BB
:1006FC0016F800222021204801F011F80022402198
:10070C001D4801F00CF8002280211B4801F007F86D
:10071C002DE001221021184801F001F800222021BF
:10072C00154800F0FCFF00224021134800F0F7FFB1
:10073C0001228021104800F0F2FF18E000224FF453
:10074C0080510D4800F0EBFF00224FF400510A4895
:10075C0000F0E5FF00224FF48041074800F0DFFF76
:10076C0000224FF40041044800F0D9FF00BF00BF45
:10077C000837BD4680BD00BF000C014080B582B07B
:10078C0000AF78607B68092B00F2128101A252F84D
:10079C0023F000BFC9070008FB0700082D0800085C
:1007AC005F08000891080008C3080008F508000855
:1007BC0027090008590900088B09000800224FF48A
:1007CC0080718A4800F0ABFF00224FF4007187481B
:1007DC0000F0A5FF00224FF48061844800F09FFFD9
:1007EC0000224FF40061814800F099FFF9E00022EB
:1007FC004FF480717D4800F092FF00224FF400719D
:10080C007A4800F08CFF00224FF48061774800F0AA
:10081C0086FF01224FF40061744800F080FFE0E095
:10082C0000224FF48071714800F079FF00224FF4E0
:10083C0000716E4800F073FF01224FF480616B4829
:10084C0000F06DFF00224FF40061684800F067FF74
:10085C00C7E000224FF48071644800F060FF002272
:10086C004FF40071614800F05AFF01224FF480618F
:10087C005E4800F054FF01224FF400615B4800F029
:10088C004EFFAEE000224FF48071584800F047FF55
:10089C0001224FF40071554800F041FF00224FF443
:1008AC008061524800F03BFF00224FF400614F483A
:1008BC0000F035FF95E000224FF480714B4800F0BA
:1008CC002EFF01224FF40071484800F028FF00224F
:1008DC004FF48061454800F022FF01224FF4006183
:1008EC00424800F01CFF7CE000224FF480713F482E
:1008FC0000F015FF01224FF400713C4800F00FFF8F
:10090C0001224FF48061394800F009FF00224FF4B6
:10091C000061364800F003FF63E000224FF4807161
:10092C00324800F0FCFE01224FF400712F4800F019
:10093C00F6FE01224FF480612C4800F0F0FE0122FB
:10094C004FF40061294800F0EAFE4AE001224FF41E
:10095C008071264800F0E3FE00224FF4007123481A
:10096C0000F0DDFE00224FF48061204800F0D7FE3D
:10097C0000224FF400611D4800F0D1FE31E001224D
:10098C004FF48071194800F0CAFE00224FF4007138
:10099C00164800F0C4FE00224FF48061134800F0AA
:1009AC00BEFE01224FF40061104800F0B8FE18E0C2
:1009BC0000224FF480510D4800F0B1FE00224FF49C
:1009CC0000510A4800F0ABFE00224FF4804107486A
:1009DC0000F0A5FE00224FF40041044800F09FFEF9
:1009EC0000BF00BF0837BD4680BD00BF000C0140F2
:1009FC0080B582B000AF78607B68092B00F2128161
:100A0C0001A252F823F000BF3D0A00086F0A00084B
:100A1C00A10A0008D30A0008050B0008370B0008D0
:100A2C00690B00089B0B0008CD0B0008FF0B00089E
:100A3C0000224FF480518A4800F071FE00224FF4DE
:100A4C000051874800F06BFE00224FF4804184482F
:100A5C0000F065FE00224FF40041814800F05FFE7B
:100A6C00F9E000224FF480517D4800F058FE00223E
:100A7C004FF400517A4800F052FE00224FF48041AE
:100A8C00774800F04CFE01224FF40041744800F00E
:100A9C0046FEE0E000224FF48051714800F03FFE2A
:100AAC0000224FF400516E4800F039FE01224FF441
:100ABC0080416B4800F033FE00224FF4004168483F
:100ACC0000F02DFEC7E000224FF48051644800F086
:100ADC0026FE00224FF40051614800F020FE012256
:100AEC004FF480415E4800F01AFE01224FF40041A1
:100AFC005B4800F014FEAEE000224FF480515848E1
:100B0C0000F00DFE01224FF40051554800F007FE95
:100B1C0000224FF48041524800F001FE00224FF4B5
:100B2C0000414F4800F0FBFD95E000224FF480514E
:100B3C004B4800F0F4FD01224FF40051484800F0FE
:100B4C00EEFD00224FF48041454800F0E8FD012203
:100B5C004FF40041424800F0E2FD7CE000224FF4EB
:100B6C0080513F4800F0DBFD01224FF400513C481E
:100B7C0000F0D5FD01224FF48041394800F0CFFD43
:100B8C0000224FF40041364800F0C9FD63E000221A
:100B9C004FF48051324800F0C2FD01224FF4005155
:100BAC002F4800F0BCFD01224FF480412C4800F08E
:100BBC00B6FD01224FF40041294800F0B0FD4AE097
:100BCC0001224FF48051264800F0A9FD00224FF479
:100BDC000051234800F0A3FD00224FF4804120482F
:100BEC0000F09DFD00224FF400411D4800F097FDE0
:100BFC0031E001224FF48051194800F090FD0022A1
:100C0C004FF40051164800F08AFD00224FF4804149
:100C1C00134800F084FD01224FF40041104800F00D
:100C2C007EFD18E000224FF480510D4800F077FD56
:100C3C0000224FF400510A4800F071FD00224FF4DD
:100C4C008041074800F06BFD00224FF4004104483E
:100C5C0000F065FD00BF00BF0837BD4680BD00BF7A
:100C6C00000C014080B582B000AF78607B680E4A02
:100C7C0082FB03129210DB17D31A1846FFF75AFBAC
:100C8C007A68094B83FB02139910D317C91A0B46C8
:100C9C009B000B445B00D11A0846FFF75DFC00BFBC
:100CAC000837BD4680BD00BF6766666680B582B0FA
:100CBC0000AF78607B680E4A82FB03129210DB1740
:100CCC00D31A1846FFF75AFD7A68094B83FB0213B7
:100CDC009910D317C91A0B469B000B445B00D11A11
:100CEC000846FFF785FE00BF0837BD4680BD00BF34
:100CFC006766666680B582B000AF00F00FFA00F050
:100D0C0021F800F0A7F800F059F80C4801F064F94C
:100D1C00642000F021F900237B60094B1B68012B38
:100D2C00FBD1642000F018F97B6801337B60786894
:100D3C00FFF798FF7868FFF7B9FFEEE76C0000202B
:100D4C006800002080B590B000AF07F1180328228E
:100D5C000021184601F0FCFC3B1D00221A605A6071
:100D6C009A60DA601A610223BB610123BB62102313
:100D7C00FB6200237B6307F11803184600F000FDAB
:100D8C000346002B01D000F0E1F80F237B60002319
:100D9C00BB600023FB6000233B6100237B613B1D98
:100DAC000021184600F06CFF0346002B01D000F028
:100DBC00CDF800BF4037BD4680BD000080B586B081
:100DCC0000AF07F1080300221A605A609A60DA60DB
:100DDC003B4600221A605A601D4B4FF080421A604D
:100DEC001B4B41F63F725A60194B00229A60184B0C
:100DFC000922DA60164B00221A61154B00229A6107
:100E0C00134801F099F80346002B01D000F09EF82E
:100E1C004FF48053BB6007F1080319460C4801F0EE
:100E2C002FFA0346002B01D000F090F800233B6012
:100E3C0000237B603B461946054801F0FBFB03464B
:100E4C00002B01D000F082F800BF1837BD4680BDE2
:100E5C006C00002080B588B000AF07F110030022B1
:100E6C001A605A609A60DA602E4B9B692D4A43F0E7
:100E7C00100393612B4B9B6903F01003FB60FB6821
:100E8C00284B9B69274A43F004039361254B9B69CC
:100E9C0003F00403BB60BB68224B9B69214A43F0FF
:100EAC00080393611F4B9B6903F008037B607B680D
:100EBC0000227E211C4800F032FC00224FF6FF710C
:100ECC001A4800F02CFC4FF460433B6100237B611B
:100EDC000123BB6107F110031946154800F08EFA87
:100EEC007E233B6101237B610023BB610223FB61F9
:100EFC0007F1100319460C4800F080FA4FF6FF7307
:100F0C003B6101237B610023BB610223FB6107F181
:100F1C0010031946054800F071FA00BF2037BD4692
:100F2C0080BD00BF0010024000080140000C0140D1
:100F3C000010014080B582B000AF786000F020F85E
:100F4C00FFF74EF900BF0837BD4680BD80B400AF37
:100F5C0072B600BFFEE7000080B483B000AF7860CB
:100F6C00054A7B681360054B00221A6000BF0C37E2
:100F7C00BD4680BC704700BF6400002068000020A4
:100F8C0080B400AF094B1B68002B0BDD074B1B68B3
:100F9C00013B064A1360054B1B68002B02DC044B1B
:100FAC0001221A6000BFBD4680BC7047640000205F
:100FBC006800002080B485B000AF154B9B69144AC3
:100FCC0043F001039361124B9B6903F00103BB6077
:100FDC00BB680F4BDB690E4A43F08053D3610C4B5B
:100FEC00DB6903F080537B607B680A4B5B68FB60BA
:100FFC00FB6823F0E063FB60FB6843F08063FB60FD
:10100C00044AFB68536000BF1437BD4680BC704770
:10101C00001002400000014080B584B000AF786041
:10102C007B681B68B3F1804F13D10C4BDB690B4A07
:10103C0043F00103D361094BDB6903F00103FB604F
:10104C00FB68002200211C2000F0A1F91C2000F0FC
:10105C00BAF900BF1037BD4680BD00BF001002407A
:10106C0080B400AFFEE780B400AFFEE780B400AF01
:10107C00FEE780B400AFFEE780B400AFFEE780B4BB
:10108C0000AF00BFBD4680BC704780B400AF00BF4E
:10109C00BD4680BC704780B400AF00BFBD4680BC6D
:1010AC00704780B500AF00F07FF800BF80BD000036
:1010BC0080B500AF024800F0DBFF00BF80BD00BF71
:1010CC006C00002080B400AF00BFBD4680BC7047F0
:1010DC00FFF7F8FF0B480C490C4A002302E0D458E8
:1010EC00C4500433C4188C42F9D3094A094C002368
:1010FC0001E013600432A242FBD301F005FBFFF7C1
:10110C00F9FD70470000002048000020B0270008BF
:10111C0048000020B8000020FEE7000080B500AFBA
:10112C00084B1B68074A43F010031360032000F0C0
:10113C0023F90F2000F008F8FFF73CFF00231846B6
:10114C0080BD00BF0020024080B582B000AF786047
:10115C00124B1A68124B1B7819464FF47A73B3FB77
:10116C00F1F3B2FBF3F3184600F03BF90346002B06
:10117C0001D001230EE07B680F2B0AD8002279687E
:10118C004FF0FF3000F003F9064A7B681360002330
:10119C0000E0012318460837BD4680BD3C00002006
:1011AC00440000204000002080B400AF054B1B78A9
:1011BC001A46054B1B681344034A136000BFBD4617
:1011CC0080BC704744000020B400002080B400AF05
:1011DC00024B1B681846BD4680BC7047B40000200B
:1011EC0080B485B000AF78607B6803F00703FB60C8
:1011FC000C4BDB68BB60BA684FF6FF031340BB6057
:10120C00FB681A02BB68134343F0BF6343F400331B
:10121C00BB60044ABB68D36000BF1437BD4680BCBA
:10122C00704700BF00ED00E080B400AF044BDB68FA
:10123C001B0A03F007031846BD4680BC704700BF6D
:10124C0000ED00E080B483B000AF0346FB7197F96A
:10125C000730002B0BDBFB7903F01F02064997F9D3
:10126C0007305B09012000FA02F241F8232000BF8D
:10127C000C37BD4680BC704700E100E080B483B001
:10128C0000AF03463960FB7197F90730002B0ADB7E
:10129C003B68DAB20C4997F907301201D2B20B4411
:1012AC0083F800230AE03B68DAB20849FB7903F0C3
:1012BC000F03043B1201D2B20B441A7600BF0C3759
:1012CC00BD4680BC704700BF00E100E000ED00E0CF
:1012DC0080B489B000AFF860B9607A60FB6803F045
:1012EC000703FB61FB69C3F10703042B28BF04232D
:1012FC00BB61FB690433062B02D9FB69033B00E09D
:10130C0000237B614FF0FF32BB6902FA03F3DA432F
:10131C00BB681A407B699A404FF0FF317B6901FA38
:10132C0003F3D9437B680B40134318462437BD465F
:10133C0080BC704780B582B000AF78607B68013BA1
:10134C00B3F1807F01D301230FE00A4A7B68013B94
:10135C0053600F214FF0FF30FFF790FF054B002239
:10136C009A60044B07221A60002318460837BD46C2
:10137C0080BD00BF10E000E080B582B000AF7860A7
:10138C007868FFF72DFF00BF0837BD4680BD80B5DC
:10139C0086B000AF0346B9607A60FB7300237B61B3
:1013AC00FFF742FF78617A68B9687869FFF790FFB8
:1013BC00024697F90F3011461846FFF75FFF00BF42
:1013CC001837BD4680BD80B582B000AF0346FB71B7
:1013DC0097F907301846FFF735FF00BF0837BD46B1
:1013EC0080BD80B582B000AF78607868FFF7A2FF4F
:1013FC00034618460837BD4680BD000080B48BB04C
:10140C0000AF7860396000237B6200233B6248E1C7
:10141C0001227B6A02FA03F3FB613B681B68FA69E1
:10142C001340BB61BA69FB699A4240F037813B6853
:10143C005B68A34A93425ED0A14A934275D8A14AF5
:10144C00934258D09F4A93426FD89F4A934252D0AE
:10145C009D4A934269D89D4A93424CD09B4A9342F1
:10146C0063D89B4A934246D0994A93425DD8122B3B
:10147C002AD8122B59D801A252F823F003150008D0
:10148C00DD140008EF1400083115000837150008AA
:10149C0037150008371500083715000837150008F0
:1014AC0037150008371500083715000837150008E0
:1014BC0037150008371500083715000837150008D0
:1014CC00E5140008F9140008824A934213D02CE06A
:1014DC003B68DB683B6229E03B68DB6804333B62BA
:1014EC0024E03B68DB6808333B621FE03B68DB6849
:1014FC000C333B621AE03B689B68002B02D104233F
:10150C003B6213E03B689B68012B05D108233B62CF
:10151C007B68FA691A6109E008233B627B68FA6907
:10152C005A6103E000233B6200E000BFBB69FF2B64
:10153C0001D87B6801E07B6804337B61BB69FF2BBE
:10154C0002D87B6A9B0002E07B6A083B9B003B61F4
:10155C007B691A680F213B6901FA03F3DB431A40DC
:10156C00396A3B6901FA03F31A437B691A603B68D9
:10157C005B6803F08053002B00F09080564B9B6906
:10158C00554A43F001039361534B9B6903F00103EC
:10159C00BB60BB68514A7B6A9B08023352F823300C
:1015AC00FB607B6A03F003039B000F2202FA03F338
:1015BC00DB43FA681340FB607B68494A93420DD0C9
:1015CC007B68484A934207D07B68474A934201D1D3
:1015DC00022304E0032302E0012300E000237A6AE3
:1015EC0002F0030292009340FA681343FB603B49FC
:1015FC007B6A9B080233FA6841F823203B685B68DE
:10160C0003F48013002B06D0384B9A683749BB691A
:10161C0013438B6006E0354B9A68BB69DB43334957
:10162C0013408B603B685B6803F40013002B06D0FF
:10163C002E4BDA682D49BB691343CB6006E02B4B6C
:10164C00DA68BB69DB4329491340CB603B685B68B4
:10165C0003F40033002B06D0244B5A682349BB6992
:10166C0013434B6006E0214B5A68BB69DB431F49AF
:10167C0013404B603B685B6803F48033002B06D04F
:10168C001A4B1A681949BB6913430B6006E0174BD8
:10169C001A68BB69DB43154913400B607B6A013345
:1016AC007B623B681A687B6A22FA03F3002B7FF497
:1016BC00AFAE00BF00BF2C37BD4680BC704700BF2B
:1016CC000000321000003110000022100000211028
:1016DC000000121000001110001002400000014028
:1016EC0000080140000C01400010014000040140C2
:1016FC0080B485B000AF78600B467B807B689A68BD
:10170C007B881340002B02D00123FB7301E00023E4
:10171C00FB73FB7B18461437BD4680BC704780B406
:10172C0083B000AF78600B467B8013467B707B7870
:10173C00002B03D07A887B681A6103E07B881A043B
:10174C007B681A6100BF0C37BD4680BC704780B403
:10175C0085B000AF78600B467B807B68DB68FB60F4
:10176C007A88FB6813401A04FB68D9437B880B40CA
:10177C001A437B681A6100BF1437BD4680BC7047A2
:10178C0080B586B000AF78607B68002B01D1012357
:10179C006CE27B681B6803F00103002B00F0878070
:1017AC00924B5B6803F00C03042B0CD08F4B5B68E3
:1017BC0003F00C03082B12D18C4B5B6803F48033C1
:1017CC00B3F5803F0BD1894B1B6803F40033002B1E
:1017DC006CD07B685B68002B68D1012346E27B6888
:1017EC005B68B3F5803F06D1804B1B687F4A43F49E
:1017FC00803313602EE07B685B68002B0CD17B4B35
:10180C001B687A4A23F480331360784B1B68774A41
:10181C0023F4802313601DE07B685B68B3F5A02F75
:10182C000CD1724B1B68714A43F4802313606F4BCD
:10183C001B686E4A43F4803313600BE06B4B1B68E0
:10184C006A4A23F480331360684B1B68674A23F49D
:10185C00802313607B685B68002B13D0FFF7B6FC0A
:10186C00386108E0FFF7B2FC02463B69D31A642BDF
:10187C0001D90323FAE15D4B1B6803F40033002B01
:10188C00F0D014E0FFF7A2FC386108E0FFF79EFCF3
:10189C0002463B69D31A642B01D90323E6E1534B6F
:1018AC001B6803F40033002BF0D100E000BF7B6811
:1018BC001B6803F00203002B63D04C4B5B6803F0F6
:1018CC000C03002B0BD0494B5B6803F00C03082B6B
:1018DC001CD1464B5B6803F48033002B16D1434B71
:1018EC001B6803F00203002B05D07B681B69012BDE
:1018FC0001D00123BAE13D4B1B6823F0F8027B6851
:10190C005B69DB00394913430B603AE07B681B6968
:10191C00002B20D0364B01221A60FFF757FC3861A0
:10192C0008E0FFF753FC02463B69D31A022B01D99E
:10193C0003239BE12D4B1B6803F00203002BF0D01B
:10194C002A4B1B6823F0F8027B685B69DB00274994
:10195C0013430B6015E0264B00221A60FFF736FC90
:10196C00386108E0FFF732FC02463B69D31A022BC0
:10197C0001D903237AE11D4B1B6803F00203002BF2
:10198C00F0D17B681B6803F00803002B3AD07B680E
:10199C009B69002B19D0174B01221A60FFF716FC1C
:1019AC00386108E0FFF712FC02463B69D31A022BA0
:1019BC0001D903235AE10D4B5B6A03F00203002BA0
:1019CC00F0D0012000F09AFA1CE00A4B00221A60B9
:1019DC00FFF7FCFB38610FE0FFF7F8FB02463B69B1
:1019EC00D31A022B08D9032340E100BF0010024098
:1019FC0000004242800442429E4B5B6A03F00203A9
:101A0C00002BE9D17B681B6803F00403002B00F06A
:101A1C00A6800023FB75974BDB6903F08053002BEA
:101A2C000DD1944BDB69934A43F08053D361914BB6
:101A3C00DB6903F08053BB60BB680123FB758E4BE5
:101A4C001B6803F48073002B18D18B4B1B688A4ADC
:101A5C0043F480731360FFF7B9FB386108E0FFF7BC
:101A6C00B5FB02463B69D31A642B01D90323FDE075
:101A7C00814B1B6803F48073002BF0D07B68DB6810
:101A8C00012B06D17B4B1B6A7A4A43F0010313628C
:101A9C002DE07B68DB68002B0CD1764B1B6A754AFA
:101AAC0023F001031362734B1B6A724A23F0040385
:101ABC0013621CE07B68DB68052B0CD16D4B1B6A39
:101ACC006C4A43F0040313626A4B1B6A694A43F085
:101ADC00010313620BE0674B1B6A664A23F0010398
:101AEC001362644B1B6A634A23F0040313627B6822
:101AFC00DB68002B15D0FFF769FB38610AE0FFF7B4
:101B0C0065FB02463B69D31A41F28832934201D9F4
:101B1C000323ABE0574B1B6A03F00203002BEED000
:101B2C0014E0FFF753FB38610AE0FFF74FFB024666
:101B3C003B69D31A41F28832934201D9032395E0D1
:101B4C004C4B1B6A03F00203002BEED1FB7D012BE7
:101B5C0005D1484BDB69474A23F08053D3617B683E
:101B6C00DB69002B00F08180424B5B6803F00C03B7
:101B7C00082B61D07B68DB69022B46D13F4B0022DE
:101B8C001A60FFF723FB386108E0FFF71FFB0246E2
:101B9C003B69D31A022B01D9032367E0354B1B6831
:101BAC0003F00073002BF0D17B681B6AB3F5803F08
:101BBC0008D1304B5B6823F400327B689B682D495D
:101BCC0013434B602B4B5B6823F474127B68196ACC
:101BDC007B685B6A0B43274913434B60274B0122FD
:101BEC001A60FFF7F3FA386108E0FFF7EFFA0246E4
:101BFC003B69D31A022B01D9032337E01D4B1B6819
:101C0C0003F00073002BF0D02FE01C4B00221A6065
:101C1C00FFF7DCFA386108E0FFF7D8FA02463B69B7
:101C2C00D31A022B01D9032320E0124B1B6803F0BB
:101C3C000073002BF0D118E07B68DB69012B01D11C
:101C4C00012313E00B4B5B68FB60FB6803F48032F1
:101C5C007B681B6A9A4206D1FB6803F470127B689E
:101C6C005B6A9A4201D0012300E000231846183722
:101C7C00BD4680BD00100240007000406000424232
:101C8C0080B584B000AF786039607B68002B01D1DF
:101C9C000123D0E06A4B1B6803F007033A689A42B1
:101CAC0010D9674B1B6823F0070265493B68134347
:101CBC000B60634B1B6803F007033A689A4201D030
:101CCC000123B8E07B681B6803F00203002B20D0D3
:101CDC007B681B6803F00403002B05D0594B5B6831
:101CEC00584A43F4E06353607B681B6803F00803B5
:101CFC00002B05D0534B5B68524A43F4605353603E
:101D0C00504B5B6823F0F0027B689B684D49134392
:101D1C004B607B681B6803F00103002B40D07B6891
:101D2C005B68012B07D1474B1B6803F40033002B76
:101D3C0015D101237FE07B685B68022B07D1414BF7
:101D4C001B6803F00073002B09D1012373E03D4B9A
:101D5C001B6803F00203002B01D101236BE0394B0C
:101D6C005B6823F003027B685B68364913434B6066
:101D7C00FFF72CFAF8600AE0FFF728FA0246FB6836
:101D8C00D31A41F28832934201D9032353E02D4BED
:101D9C005B6803F00C027B685B689B009A42EBD19A
:101DAC00274B1B6803F007033A689A4210D2244B66
:101DBC001B6823F0070222493B6813430B60204B3E
:101DCC001B6803F007033A689A4201D0012332E002
:101DDC007B681B6803F00403002B08D0194B5B686D
:101DEC0023F4E0627B68DB68164913434B607B6825
:101DFC001B6803F00803002B09D0124B5B6823F41B
:101E0C0060527B681B69DB000E4913434B6000F08A
:101E1C0021F802460B4B5B681B0903F00F030A49C0
:101E2C00CB5C22FA03F3094A1360094B1B68184672
:101E3C00FFF78AF9002318461037BD4680BD00BF56
:101E4C000020024000100240842700083C000020C3
:101E5C004000002080B487B000AF0023FB6000235B
:101E6C00BB6000237B6100237B6000233B611E4B26
:101E7C005B68FB60FB6803F00C03042B02D0082B9F
:101E8C0003D027E0194B3B6127E0FB689B0C03F068
:101E9C000F03174AD35C7B60FB6803F48033002B81
:101EAC0010D0114B5B685B0C03F00103114AD35C3F
:101EBC00BB607B680D4A02FB03F2BB68B2FBF3F319
:101ECC007B6104E07B680C4A02FB03F37B617B695A
:101EDC003B6102E0054B3B6100BF3B6918461C3778
:101EEC00BD4680BC704700BF0010024000127A0053
:101EFC0094270008A427000800093D0080B485B091
:101F0C0000AF78600A4B1B680A4AA2FB03235B0AEA
:101F1C007A6802FB03F3FB6000BFFB685A1EFA6091
:101F2C00002BF9D100BF00BF1437BD4680BC7047F1
:101F3C003C000020D34D621080B582B000AF7860B9
:101F4C007B68002B01D1012341E07B6893F83D3085
:101F5C00DBB2002B06D17B68002283F83C2078682A
:101F6C00FFF75AF87B68022283F83D207B681A68D9
:101F7C007B6804331946104600F06EFA7B68012228
:101F8C0083F846207B68012283F83E207B6801227F
:101F9C0083F83F207B68012283F840207B68012274
:101FAC0083F841207B68012283F842207B68012260
:101FBC0083F843207B68012283F844207B6801224C
:101FCC0083F845207B68012283F83D2000231846C6
:101FDC000837BD4680BD000080B485B000AF786086
:101FEC007B6893F83D30DBB2012B01D0012335E047
:101FFC007B68022283F83D207B681B68DA687B686B
:10200C001B6842F00102DA607B681B68164A934237
:10201C0009D07B681B68B3F1804F04D07B681B68C8
:10202C00124A934211D17B681B689B6803F007032B
:10203C00FB60FB68062B10D07B681B681A687B68FA
:10204C001B6842F001021A6007E07B681B681A6883
:10205C007B681B6842F001021A6000231846143793
:10206C00BD4680BC704700BF002C014000040040FE
:10207C0080B582B000AF78607B681B681B6903F089
:10208C000203022B22D17B681B68DB6803F002037E
:10209C00022B1BD17B681B686FF002021A617B68F4
:1020AC0001221A777B681B689B6903F00303002BE2
:1020BC0003D0786800F0B4F905E0786800F0A7F96F
:1020CC00786800F0B6F97B6800221A777B681B6889
:1020DC001B6903F00403042B22D17B681B68DB68AB
:1020EC0003F00403042B1BD17B681B686FF0040204
:1020FC001A617B6802221A777B681B689B6903F460
:10210C004073002B03D0786800F08AF905E07868FA
:10211C0000F07DF9786800F08CF97B6800221A7762
:10212C007B681B681B6903F00803082B22D17B68B2
:10213C001B68DB6803F00803082B1BD17B681B684A
:10214C006FF008021A617B6804221A777B681B689F
:10215C00DB6903F00303002B03D0786800F060F90F
:10216C0005E0786800F053F9786800F062F97B6854
:10217C0000221A777B681B681B6903F01003102B75
:10218C0022D17B681B68DB6803F01003102B1BD17A
:10219C007B681B686FF010021A617B6808221A7743
:1021AC007B681B68DB6903F44073002B03D07868F1
:1021BC0000F036F905E0786800F029F9786800F04D
:1021CC0038F97B6800221A777B681B681B6903F05F
:1021DC000103012B0ED17B681B68DB6803F0010344
:1021EC00012B07D17B681B686FF001021A617868BC
:1021FC00FEF7A0FE7B681B681B6903F08003802B35
:10220C000ED17B681B68DB6803F08003802B07D141
:10221C007B681B686FF080021A61786800F06BFABB
:10222C007B681B681B6903F04003402B0ED17B6855
:10223C001B68DB6803F04003402B07D17B681B68ED
:10224C006FF040021A61786800F0FCF87B681B683C
:10225C001B6903F02003202B0ED17B681B68DB6805
:10226C0003F02003202B07D17B681B686FF0200242
:10227C001A61786800F036FA00BF0837BD4680BD99
:10228C0080B584B000AF786039600023FB737B6845
:10229C0093F83C30012B01D10223B4E07B6801227E
:1022AC0083F83C207B68022283F83D207B681B6806
:1022BC009B68BB60BB6823F07703BB60BB6823F4EF
:1022CC007F43BB607B681B68BA689A603B681B687D
:1022DC00B3F5005F3ED0B3F5005F00F28780B3F535
:1022EC00805F00F08680B3F5805F7FD8702B1AD0AA
:1022FC00702B7BD8602B50D0602B77D8502B3CD0D8
:10230C00502B73D8402B58D0402B6FD8302B64D027
:10231C00302B6BD8202B60D0202B67D8002B5CD0B7
:10232C00102B5AD062E07B6818683B6899683B6850
:10233C005A683B68DB6800F05EF97B681B689B6839
:10234C00BB60BB6843F07703BB607B681B68BA68F3
:10235C009A604FE07B6818683B6899683B685A68DC
:10236C003B68DB6800F047F97B681B689A687B6800
:10237C001B6842F480429A603CE07B6818683B68BA
:10238C0059683B68DB681A4600F0BEF87B681B682E
:10239C005021184600F015F92CE07B6818683B6852
:1023AC0059683B68DB681A4600F0DCF87B681B68F0
:1023BC006021184600F005F91CE07B6818683B6842
:1023CC0059683B68DB681A4600F09EF87B681B680E
:1023DC004021184600F0F5F80CE07B681A683B6861
:1023EC001B681946104600F0ECF803E00123FB7360
:1023FC0000E000BF7B68012283F83D207B6800224F
:10240C0083F83C20FB7B18461037BD4680BD80B45A
:10241C0083B000AF786000BF0C37BD4680BC7047FE
:10242C0080B483B000AF786000BF0C37BD4680BC71
:10243C00704780B483B000AF786000BF0C37BD46E6
:10244C0080BC704780B483B000AF786000BF0C379D
:10245C00BD4680BC7047000080B485B000AF78608A
:10246C0039607B681B68FB607B68254A934207D008
:10247C007B68B3F1804F03D07B68224A934208D12A
:10248C00FB6823F07003FB603B685B68FA681343DE
:10249C00FB607B681A4A934207D07B68B3F1804F8C
:1024AC0003D07B68174A934208D1FB6823F440732E
:1024BC00FB603B68DB68FA681343FB60FB6823F046
:1024CC0080023B685B691343FB607B68FA681A60A7
:1024DC003B689A687B68DA623B681A687B689A6228
:1024EC007B68074A934203D13B681A697B681A637D
:1024FC007B6801225A6100BF1437BD4680BC70470F
:10250C00002C01400004004080B487B000AFF8609C
:10251C00B9607A60FB681B6A7B61FB681B6A23F0FD
:10252C000102FB681A62FB689B693B613B6923F003
:10253C00F0033B617B681B013A6913433B617B6988
:10254C0023F00A037B617A69BB6813437B61FB68E8
:10255C003A699A61FB687A691A6200BF1C37BD46FA
:10256C0080BC704780B487B000AFF860B9607A6007
:10257C00FB681B6A7B61FB681B6A23F01002FB681B
:10258C001A62FB689B693B613B6923F470433B61B6
:10259C007B681B033A6913433B617B6923F0A003FF
:1025AC007B61BB681B017A6913437B61FB683A69E9
:1025BC009A61FB687A691A6200BF1C37BD4680BC01
:1025CC00704780B485B000AF786039607B689B68D9
:1025DC00FB60FB6823F07003FB603A68FB681343F5
:1025EC0043F00703FB607B68FA689A6000BF1437FE
:1025FC00BD4680BC704780B487B000AFF860B9604E
:10260C007A603B60FB689B687B617B6923F47F434A
:10261C007B613B681A027B681A43BB6813437A6977
:10262C0013437B61FB687A699A6000BF1C37BD4617
:10263C0080BC704780B485B000AF786039607B682F
:10264C0093F83C30012B01D1022341E07B6801223D
:10265C0083F83C207B68022283F83D207B681B6852
:10266C005B68FB607B681B689B68BB60FB6823F046
:10267C007003FB603B681B68FA681343FB607B6864
:10268C001B68FA685A607B681B68144A934209D02D
:10269C007B681B68B3F1804F04D07B681B68104AC1
:1026AC0093420CD1BB6823F08003BB603B685B6832
:1026BC00BA681343BB607B681B68BA689A607B6816
:1026CC00012283F83D207B68002283F83C20002304
:1026DC0018461437BD4680BC704700BF002C014023
:1026EC000004004080B483B000AF786000BF0C37AA
:1026FC00BD4680BC704780B483B000AF786000BF2B
:10270C000C37BD4680BC704770B500260C4D0D4C87
:10271C00641BA410A64209D100F022F800260A4D31
:10272C000A4C641BA410A64205D170BD55F8043B9D
:10273C0098470136EEE755F8043B98470136F2E727
:10274C00A8270008A8270008A8270008AC2700081D
:10275C0003460244934200D1704703F8011BF9E78A
:10276C00F8B500BFF8BC08BC9E467047F8B500BF72
:08277C00F8BC08BC9E46704742
:10278400000000000000000001020304060708091D
:1027940002030405060708090A0B0C0D0E0F10109E
:0427A400010200002E
:0427A80031010008F3
:0427AC000D01000813
:1027B0000100000001000000010000000100000015
:1027C0000100000001000000010000000100000005
:1027D00001000000010000000100000001000000F5
:1027E0006400000064000000640000000024F400A5
:0827F0001000000001000000D0
:04000005080010DD02
:00000001FF
