:020000040800F2
:1000000000280020AD170008291700082F17000846
:10001000351700083B1700084117000800000000D2
:10002000000000000000000000000000471700086A
:1000300053170008000000005F1700086B17000846
:10004000F5170008F5170008F5170008F517000860
:10005000F5170008F5170008F5170008F517000850
:10006000F5170008F5170008F5170008F517000840
:10007000F5170008F5170008F5170008F517000830
:10008000F5170008F5170008F5170008F517000820
:10009000F5170008F5170008F5170008F517000810
:1000A000F5170008F5170008F5170008F517000800
:1000B000791700088D17000800000000F5170008E8
:1000C000F51700080000000000000000F517000808
:1000D00000000000F5170008F517000800000000F8
:1000E000F5170008F5170008F517000800000000D4
:1000F0000000000000000000000000000000000000
:0C01000000000000000000005FF808F1A3
:10010C0010B5054C237833B9044B13B10448AFF345
:10011C0000800123237010BD64000020000000004B
:10012C003C2E000808B5034B1BB103490348AFF341
:10013C00008008BD00000000680000203C2E000874
:10014C0080B582B000AF78607B68022B00F0AB808A
:10015C007B68022B00F3C9807B68002B03D07B6883
:10016C00012B60D0C1E0634B1B68013B032B55D8BE
:10017C0001A252F823F000BF95010008B901000854
:10018C00DD010008010200085A4B02221A605A4B8A
:10019C001B685A4A13605A4B1B685A4A13605A4BD5
:1001AC001B685A4A136001F00DF83BE0514B0322D7
:1001BC001A60514B1B68514A1360514B1B68514AD2
:1001CC001360514B1B68514A136000F0FBFF29E090
:1001DC00484B04221A60484B1B68484A1360484B32
:1001EC001B68484A1360484B1B68484A136000F070
:1001FC00E9FF17E03F4B01221A603F4B1B683F4A57
:10020C0013603F4B1B683F4A13603F4B1B683F4AD0
:10021C00136000F0D7FF00F0F9FF03E0354B01222B
:10022C001A6000BF62E0334B1B68013B032B32D8D2
:10023C0001A252F823F000BFA302000855020008E7
:10024C006F020008890200082C4B1B6801332B4AF3
:10025C0013602A4B1B68632B1FDD284B01221A608D
:10026C001BE0284B1B680133264A1360254B1B6887
:10027C00632B14DD234B01221A6010E0234B1B6807
:10028C000133224A1360214B1B68632B09DD1F4B82
:10029C0001221A6005E000BF28E000BF26E000BF85
:1002AC0024E000BF22E0134B1B68013B032B1AD840
:1002BC0001A252F823F000BFF3020008D502000897
:1002CC00DF020008E90200080C4B1B680A4A1360A5
:1002DC000AE00C4B1B680A4A136005E00B4B1B68C9
:1002EC00094A136000E000BF00E000BF00BF083700
:1002FC00BD4680BD3C000020400000204C0000208A
:10030C004400002050000020480000205400002031
:10031C0080B582B000AF78607868FFF711FF00BF3E
:10032C000837BD4680BD000080B582B000AF002309
:10033C007B608EE04B4A7B6852F823204A497B68ED
:10034C0041F82320494A7B6852F8232045497B68B1
:10035C0041F823207B68002B0AD14FF4005144480C
:10036C0001F02EFD03461946404A7B6842F82310E3
:10037C007B68012B0AD14FF480413D4801F020FDF0
:10038C0003461946394A7B6842F823107B68022BD6
:10039C000AD14FF40041364801F012FD03461946CC
:1003AC00324A7B6842F823102F4A7B6852F823208C
:1003BC002C497B6851F823309A4247D1294A7B68F3
:1003CC0052F8232029497B6851F823309A423DD1B9
:1003DC00284A7B6852F8232024497B6851F8233043
:1003EC009A4216D0214A7B6852F8232021497B6817
:1003FC0041F823201D4A7B6852F82330002B25D16D
:10040C001D4A7B68642142F823107868FFF798FE38
:10041C001CE0194A7B6852F823305A1E16497B6837
:10042C0041F82320144A7B6852F82330002B0DDC52
:10043C00114A7B68642142F823100C4A7B6852F8FD
:10044C002330002B02D17868FFF762FF7B68013301
:10045C007B607B68022B7FF76DAF00BF00BF083756
:10046C00BD4680BD0C0000200000002018000020BC
:10047C0000100140240000203000002080B582B024
:10048C0000AF78607B68092B00F2EA8001A252F879
:10049C0023F000BFC9040008F30400081D05000880
:1004AC0047050008710500089B050008C5050008F4
:1004BC00EF05000819060008430600080022012178
:1004CC00764801F094FC00220221744801F08FFC64
:1004DC0000220421714801F08AFC002208216F4897
:1004EC0001F085FCD5E0002201216C4801F07FFC75
:1004FC0000220221694801F07AFC0022042167489D
:10050C0001F075FC01220821644801F070FCC0E088
:10051C0000220121614801F06AFC002202215F489F
:10052C0001F065FC012204215C4801F060FC002212
:10053C0008215A4801F05BFCABE00022012157482E
:10054C0001F055FC00220221544801F050FC01221C
:10055C000421524801F04BFC012208214F4801F0C4
:10056C0046FC96E0002201214C4801F040FC01229F
:10057C0002214A4801F03BFC00220421474801F0CB
:10058C0036FC00220821454801F031FC81E00022B4
:10059C000121424801F02BFC012202213F4801F0CD
:1005AC0026FC002204213D4801F021FC01220821F7
:1005BC003A4801F01CFC6CE000220121374801F0A4
:1005CC0016FC01220221354801F011FC0122042104
:1005DC00324801F00CFC00220821304801F007FCE5
:1005EC0057E0002201212D4801F001FC01220221DB
:1005FC002A4801F0FCFB01220421284801F0F7FBFA
:10060C0001220821254801F0F2FB42E001220121E0
:10061C00224801F0ECFB00220221204801F0E7FB0C
:10062C00002204211D4801F0E2FB002208211B4896
:10063C0001F0DDFB2DE001220121184801F0D7FB70
:10064C0000220221154801F0D2FB0022042113489C
:10065C0001F0CDFB01220821104801F0C8FB18E085
:10066C0000224FF480510D4801F0C1FB00224FF4E1
:10067C0000510A4801F0BBFB00224FF480410748AF
:10068C0001F0B5FB00224FF40041044801F0AFFB30
:10069C0000BF00BF0837BD4680BD00BF000C014045
:1006AC0080B582B000AF78607B68092B00F2EA80DD
:1006BC0001A252F823F000BFED060008170700084E
:1006CC00410700086B07000895070008BF070008E2
:1006DC00E9070008130800083D080008670800082F
:1006EC0000221021764801F082FB00222021744860
:1006FC0001F07DFB00224021714801F078FB0022C3
:10070C0080216F4801F073FBD5E0002210216C486A
:10071C0001F06DFB00222021694801F068FB0022EA
:10072C004021674801F063FB01228021644801F0FD
:10073C005EFBC0E000221021614801F058FB002252
:10074C0020215F4801F053FB012240215C4801F05D
:10075C004EFB002280215A4801F049FBABE00022FD
:10076C001021574801F043FB00222021544801F08E
:10077C003EFB01224021524801F039FB012280212D
:10078C004F4801F034FB96E0002210214C4801F058
:10079C002EFB012220214A4801F029FB0022402196
:1007AC00474801F024FB00228021454801F01FFB43
:1007BC0081E000221021424801F019FB0122202186
:1007CC003F4801F014FB002240213D4801F00FFB93
:1007DC00012280213A4801F00AFB6CE00022102132
:1007EC00374801F004FB01222021354801F0FFFAC3
:1007FC0001224021324801F0FAFA002280213048CF
:10080C0001F0F5FA57E0002210212D4801F0EFFA23
:10081C00012220212A4801F0EAFA0122402128482D
:10082C0001F0E5FA01228021254801F0E0FA42E0CE
:10083C0001221021224801F0DAFA0022202120485E
:10084C0001F0D5FA002240211D4801F0D0FA002217
:10085C0080211B4801F0CBFA2DE001221021184811
:10086C0001F0C5FA00222021154801F0C0FA00223F
:10087C004021134801F0BBFA01228021104801F0FD
:10088C00B6FA18E000224FF480510D4801F0AFFA8F
:10089C0000224FF400510A4801F0A9FA00224FF44B
:1008AC008041074801F0A3FA00224FF400410448AC
:1008BC0001F09DFA00BF00BF0837BD4680BD00BFE8
:1008CC00000C014080B582B000AF78607B68092BCA
:1008DC0000F2128101A252F823F000BF11090008A6
:1008EC004309000875090008A7090008D909000880
:1008FC000B0A00083D0A00086F0A0008A10A00084C
:10090C00D30A000800224FF480718A4801F06FFA74
:10091C0000224FF40071874801F069FA00224FF46D
:10092C008061844801F063FA00224FF40061814831
:10093C0001F05DFAF9E000224FF480717D4801F07E
:10094C0056FA00224FF400717A4801F050FA002256
:10095C004FF48061774801F04AFA01224FF40061AC
:10096C00744801F044FAE0E000224FF480717148C1
:10097C0001F03DFA00224FF400716E4801F037FA95
:10098C0001224FF480616B4801F031FA00224FF4E0
:10099C000061684801F02BFAC7E000224FF4807127
:1009AC00644801F024FA00224FF40071614801F010
:1009BC001EFA01224FF480615E4801F018FA012200
:1009CC004FF400615B4801F012FAAEE000224FF4E4
:1009DC008071584801F00BFA01224FF40071554810
:1009EC0001F005FA00224FF48061524801F0FFF942
:1009FC0000224FF400614F4801F0F9F995E0002214
:100A0C004FF480714B4801F0F2F901224FF4007160
:100A1C00484801F0ECF900224FF48061454801F0A0
:100A2C00E6F901224FF40061424801F0E0F97CE064
:100A3C0000224FF480713F4801F0D9F901224FF4A4
:100A4C0000713C4801F0D3F901224FF48061394820
:100A5C0001F0CDF900224FF40061364801F0C7F9DE
:100A6C0063E000224FF48071324801F0C0F901229A
:100A7C004FF400712F4801F0BAF901224FF4806154
:100A8C002C4801F0B4F901224FF40061294801F01F
:100A9C00AEF94AE001224FF48071264801F0A7F923
:100AAC0000224FF40071234801F0A1F900224FF409
:100ABC008061204801F09BF900224FF400611D4831
:100ACC0001F095F931E001224FF48071194801F0E1
:100ADC008EF900224FF40071164801F088F90022BB
:100AEC004FF48061134801F082F901224FF4006148
:100AFC00104801F07CF918E000224FF480510D48A9
:100B0C0001F075F900224FF400510A4801F06FF919
:100B1C0000224FF48041074801F069F900224FF49C
:100B2C000041044801F063F900BF00BF0837BD461F
:100B3C0080BD00BF000C014080B582B000AF786072
:100B4C007B68092B00F2128101A252F823F000BF3E
:100B5C00850B0008B70B0008E90B00081B0C0008FC
:100B6C004D0C00087F0C0008B10C0008E30C0008C9
:100B7C00150D0008470D000800224FF480518A48DB
:100B8C0001F035F900224FF40051874801F02FF99C
:100B9C0000224FF48041844801F029F900224FF4DF
:100BAC000041814801F023F9F9E000224FF4805113
:100BBC007D4801F01CF900224FF400517A4801F0F5
:100BCC0016F900224FF48041774801F010F9012208
:100BDC004FF40041744801F00AF9E0E000224FF4B0
:100BEC008051714801F003F900224FF400516E4816
:100BFC0001F0FDF801224FF480416B4801F0F7F849
:100C0C0000224FF40041684801F0F1F8C7E00022DF
:100C1C004FF48051644801F0EAF800224FF400517F
:100C2C00614801F0E4F801224FF480415E4801F084
:100C3C00DEF801224FF400415B4801F0D8F8AEE039
:100C4C0000224FF48051584801F0D1F801224FF4A2
:100C5C000051554801F0CBF800224FF48041524826
:100C6C0001F0C5F800224FF400414F4801F0BFF8E5
:100C7C0095E000224FF480514B4801F0B8F8012266
:100C8C004FF40051484801F0B2F800224FF4804173
:100C9C00454801F0ACF801224FF40041424801F004
:100CAC00A6F87CE000224FF480513F4801F09FF8F9
:100CBC0001224FF400513C4801F099F801224FF405
:100CCC008041394801F093F800224FF40041364836
:100CDC0001F08DF863E000224FF48051324801F0AE
:100CEC0086F801224FF400512F4801F080F80122C0
:100CFC004FF480412C4801F07AF801224FF4004166
:100D0C00294801F074F84AE001224FF4805126483A
:100D1C0001F06DF800224FF40051234801F067F800
:100D2C0000224FF48041204801F061F800224FF47A
:100D3C0000411D4801F05BF831E001224FF4805175
:100D4C00194801F054F800224FF40051164801F0F4
:100D5C004EF800224FF48041134801F048F801226C
:100D6C004FF40041104801F042F818E000224FF413
:100D7C0080510D4801F03BF800224FF400510A4815
:100D8C0001F035F800224FF48041074801F02FF8AC
:100D9C0000224FF40041044801F029F800BF00BFC5
:100DAC000837BD4680BD00BF000C014080B582B045
:100DBC0000AF78607B680E4A82FB03129210DB173F
:100DCC00D31A1846FFF75AFB7A68094B83FB0213B8
:100DDC009910D317C91A0B469B000B445B00D11A10
:100DEC000846FFF75DFC00BF0837BD4680BD00BF5D
:100DFC006766666680B582B000AF78607B680E4A25
:100E0C0082FB03129210DB17D31A1846FFF75AFD18
:100E1C007A68094B83FB02139910D317C91A0B4636
:100E2C009B000B445B00D11A0846FFF785FE00BF00
:100E3C000837BD4680BD00BF6766666680B500AFEB
:100E4C0000F0D4FC00F042F800F016F900F07AF84B
:100E5C0000F0C4F8154801F027FC154801F024FCFB
:100E6C0000F0D4F9134B1B68012BFBD1124B1B6800
:100E7C00012B17D1114B1B68013B104A13600F4B10
:100E8C001B68002B02DC0E4B01221A600D4B1B68F9
:100E9C00013B0C4A13600B4B1B68002B02DC0A4B0A
:100EAC0001221A60642000F043FBDBE7EC00002019
:100EBC00A4000020880000203C00002094000020AA
:100ECC00980000209C000020A000002080B590B06D
:100EDC0000AF07F1180328220021184601F0A0FFEB
:100EEC003B1D00221A605A609A60DA601A61022374
:100EFC00BB610123BB621023FB6200237B6307F100
:100F0C001803184600F0A4FF0346002B01D000F094
:100F1C0053F90F237B600023BB600023FB6000238D
:100F2C003B6100237B613B1D0021184601F010FA48
:100F3C000346002B01D000F03FF900BF4037BD46FF
:100F4C0080BD000080B586B000AF07F10803002219
:100F5C001A605A609A60DA603B4600221A605A6046
:100F6C001D4B4FF080421A601B4B41F63F725A608A
:100F7C00194B00229A60184B0922DA60164B00229A
:100F8C001A61154B00229A61134801F03DFB034690
:100F9C00002B01D000F010F94FF48053BB6007F127
:100FAC00080319460C4801F0D3FC0346002B01D072
:100FBC0000F002F900233B6000237B603B4619469E
:100FCC00054801F09FFE0346002B01D000F0F4F819
:100FDC0000BF1837BD4680BDEC00002080B586B040
:100FEC0000AF07F1080300221A605A609A60DA60B9
:100FFC003B4600221A605A601D4B1E4A1A601C4B5D
:10100C0041F63F725A601A4B00229A60184B092223
:10101C00DA60174B00221A61154B00229A611448B2
:10102C0001F0F2FA0346002B01D000F0C5F84FF4A2
:10103C008053BB6007F1080319460D4801F088FC8A
:10104C000346002B01D000F0B7F800233B600023CF
:10105C007B603B461946064801F054FE0346002BC4
:10106C0001D000F0A9F800BF1837BD4680BD00BF05
:10107C00A40000200004004080B588B000AF07F148
:10108C00100300221A605A609A60DA602E4B9B693A
:10109C002D4A43F0100393612B4B9B6903F0100313
:1010AC00FB60FB68284B9B69274A43F00403936160
:1010BC00254B9B6903F00403BB60BB68224B9B6907
:1010CC00214A43F0080393611F4B9B6903F008030B
:1010DC007B607B6800227E211C4800F088FE002289
:1010EC004FF6FF711A4800F082FE4FF460433B61EB
:1010FC0000237B610123BB6107F1100319461548DE
:10110C0000F0E4FC7E233B6101237B610023BB6187
:10111C000223FB6107F1100319460C4800F0D6FCC2
:10112C004FF6FF733B6101237B610023BB610223FC
:10113C00FB6107F110031946054800F0C7FC00BF1E
:10114C002037BD4680BD00BF0010024000080140A2
:10115C00000C01400010014080B582B000AF7860F7
:10116C007B681B68B3F1804F13D100F031FAFFF7A5
:10117C00DBF800F0B7F90C4B1B68012B09D10B4BBA
:10118C001B681846FFF712FE094B1B681846FFF741
:10119C0031FE7B681B68074A934201D100F032FA9A
:1011AC0000BF0837BD4680BD3C00002094000020E5
:1011BC009C0000200004004080B400AF72B600BF59
:1011CC00FEE7000080B500AF012202210E4800F0BE
:1011DC000EFE012204210C4800F009FE0122082118
:1011EC00094800F004FE01221021074800F0FFFD21
:1011FC0001222021044800F0FAFD0122402102487E
:10120C0000F0F5FD00BF80BD0008014080B500AFC7
:10121C000B4B00221A700B4B1B68184600F0B0F9F0
:10122C00094B1B68184600F0BFF9FFF7CBFF642091
:10123C0000F07EF9322000F08FF900BF80BD00BFB6
:10124C0080000020400000204800002080B500AF46
:10125C006A4B1B78032B00F2CD8001A252F823F0CD
:10126C007D120008D91200083F1300089B130008D8
:10127C00634B1B68012B0FD1604B02221A70FFF7D6
:10128C00A1FF604B1B68184600F07AF95E4B1B6897
:10129C00184600F089F9AEE05C4B1B68012B0AD1B3
:1012AC00564B01221A70FFF78DFF564B1B681846E0
:1012BC0000F07AF99FE000220221554800F097FDDA
:1012CC0000224021524800F092FD94E04C4B1B68E8
:1012DC00012B0FD1494B02221A70FFF773FF4D4BB4
:1012EC001B68184600F04CF9474B1B68184600F079
:1012FC005BF980E0454B1B68012B0FD13F4B022261
:10130C001A70FFF75FFF434B1B68184600F038F963
:10131C003D4B1B68184600F047F96CE00022022197
:10132C003B4800F064FD00222021394800F05FFDAD
:10133C0061E0364B1B68012B0FD1304B00221A7029
:10134C00FFF740FF304B1B68184600F019F9314B82
:10135C001B68184600F028F94DE0294B1B68012B3F
:10136C000AD1264B03221A70FFF72CFF254B1B6862
:10137C00184600F005F93EE000220821244800F050
:10138C0036FD00221021224800F031FD33E01F4BC6
:10139C001B68012B0FD1194B00221A70FFF712FF9B
:1013AC00194B1B68184600F0EBF81A4B1B681846D3
:1013BC0000F0FAF81FE0124B1B68012B0FD10F4BFA
:1013CC0000221A70FFF7FEFE0F4B1B68184600F048
:1013DC00D7F8104B1B68184600F0E6F80BE000221B
:1013EC0004210B4800F003FD00221021084800F0F6
:1013FC00FEFC00E000BF00BF80BD00BF80000020ED
:10140C00980000204400002040000020A000002094
:10141C00000801404800002080B500AF0C4B1B6851
:10142C00012B0AD102210B4800F0F9FC10210948CC
:10143C0000F0F5FC322000F08FF80220FFF7B6FC2C
:10144C00054B1B681846FFF7D5FC00BF80BD00BFDD
:10145C008C000020000801404C00002080B500AF3B
:10146C000C4B1B68012B0AD104210B4800F0D7FC54
:10147C002021094800F0D3FC322000F06DF8032045
:10148C00FFF794FC054B1B681846FFF7B3FC00BF35
:10149C0080BD00BF8C0000200008014050000020DF
:1014AC0080B500AF0C4B1B68012B0AD108210B48EF
:1014BC0000F0B5FC4021094800F0B1FC322000F0EE
:1014CC004BF80420FFF772FC054B1B681846FFF71E
:1014DC0091FC00BF80BD00BF8C00002000080140C3
:1014EC005400002080B500AF104B1B68013B032B50
:1014FC0016D801A252F823F0151500081B15000888
:10150C002115000827150008FFF7A0FE0CE0FFF7D7
:10151C0083FF09E0FFF7A2FF06E0FFF7C1FF03E03E
:10152C00024B01221A6000BF00BF80BD3C000020AE
:10153C0080B483B000AF7860054A7B681360054BBC
:10154C0000221A6000BF0C37BD4680BC704700BF3C
:10155C00840000208800002080B483B000AF786045
:10156C00054A7B681360054B00221A6000BF0C37DC
:10157C00BD4680BC704700BF900000208C0000204E
:10158C0080B483B000AF7860054A7B681360054B6C
:10159C0000221A6000BF0C37BD4680BC704700BFEC
:1015AC00940000209800002080B483B000AF7860D5
:1015BC00054A7B681360054B00221A6000BF0C378C
:1015CC00BD4680BC704700BF9C000020A0000020DE
:1015DC0080B400AF094B1B68002B0BDD074B1B685D
:1015EC00013B064A1360054B1B68002B02DC044BC5
:1015FC0001221A6000BFBD4680BC704784000020E9
:10160C008800002080B400AF094B1B68002B0BDD59
:10161C00074B1B68013B064A1360054B1B68002BEC
:10162C0002DC044B01221A6000BFBD4680BC70472F
:10163C00900000208C00002080B485B000AF154BCA
:10164C009B69144A43F001039361124B9B6903F0AD
:10165C000103BB60BB680F4BDB690E4A43F0805340
:10166C00D3610C4BDB6903F080537B607B680A4BC6
:10167C005B68FB60FB6823F0E063FB60FB6843F096
:10168C008063FB60044AFB68536000BF1437BD469F
:10169C0080BC7047001002400000014080B584B04F
:1016AC0000AF78607B681B68B3F1804F14D1194B85
:1016BC00DB69184A43F00103D361164BDB6903F075
:1016CC000103FB60FB68002200211C2000F0C7F91D
:1016DC001C2000F0E0F918E07B681B680E4A93426E
:1016EC0013D10C4BDB690B4A43F00203D361094B5A
:1016FC00DB6903F00203BB60BB68002200211D20E4
:10170C0000F0ADF91D2000F0C6F900BF1037BD4642
:10171C0080BD00BF001002400004004080B400AF48
:10172C00FEE780B400AFFEE780B400AFFEE780B404
:10173C0000AFFEE780B400AFFEE780B400AF00BF9F
:10174C00BD4680BC704780B400AF00BFBD4680BCB6
:10175C00704780B400AF00BFBD4680BC704780B5F9
:10176C0000AF00F089F800BF80BD000080B500AF6D
:10177C00024800F0E5FF00BF80BD00BFEC00002078
:10178C0080B500AF024800F0DBFF00BF80BD00BF9A
:10179C00A400002080B400AF00BFBD4680BC7047E1
:1017AC00FFF7F8FF0B480C490C4A002302E0D45811
:1017BC00C4500433C4188C42F9D3094A094C002391
:1017CC0001E013600432A242FBD301F005FBFFF7EA
:1017DC0035FB70470000002064000020802E0008BC
:1017EC006400002038010020FEE7000080B500AF47
:1017FC00084B1B68074A43F010031360032000F0EA
:10180C0023F90F2000F008F8FFF716FF0023184605
:10181C0080BD00BF0020024080B582B000AF786070
:10182C00124B1A68124B1B7819464FF47A73B3FBA0
:10183C00F1F3B2FBF3F3184600F03BF90346002B2F
:10184C0001D001230EE07B680F2B0AD800227968A7
:10185C004FF0FF3000F003F9064A7B681360002359
:10186C0000E0012318460837BD4680BD5800002013
:10187C00600000205C00002080B400AF054B1B789A
:10188C001A46054B1B681344034A136000BFBD4640
:10189C0080BC7047600000203401002080B400AF91
:1018AC00024B1B681846BD4680BC704734010020B3
:1018BC0080B485B000AF78607B6803F00703FB60F1
:1018CC000C4BDB68BB60BA684FF6FF031340BB6080
:1018DC00FB681A02BB68134343F0BF6343F4003345
:1018EC00BB60044ABB68D36000BF1437BD4680BCE4
:1018FC00704700BF00ED00E080B400AF044BDB6824
:10190C001B0A03F007031846BD4680BC704700BF96
:10191C0000ED00E080B483B000AF0346FB7197F993
:10192C000730002B0BDBFB7903F01F02064997F9FC
:10193C0007305B09012000FA02F241F8232000BFB6
:10194C000C37BD4680BC704700E100E080B483B02A
:10195C0000AF03463960FB7197F90730002B0ADBA7
:10196C003B68DAB20C4997F907301201D2B20B443A
:10197C0083F800230AE03B68DAB20849FB7903F0EC
:10198C000F03043B1201D2B20B441A7600BF0C3782
:10199C00BD4680BC704700BF00E100E000ED00E0F8
:1019AC0080B489B000AFF860B9607A60FB6803F06E
:1019BC000703FB61FB69C3F10703042B28BF042356
:1019CC00BB61FB690433062B02D9FB69033B00E0C6
:1019DC0000237B614FF0FF32BB6902FA03F3DA4359
:1019EC00BB681A407B699A404FF0FF317B6901FA62
:1019FC0003F3D9437B680B40134318462437BD4689
:101A0C0080BC704780B582B000AF78607B68013BCA
:101A1C00B3F1807F01D301230FE00A4A7B68013BBD
:101A2C0053600F214FF0FF30FFF790FF054B002262
:101A3C009A60044B07221A60002318460837BD46EB
:101A4C0080BD00BF10E000E080B582B000AF7860D0
:101A5C007868FFF72DFF00BF0837BD4680BD80B505
:101A6C0086B000AF0346B9607A60FB7300237B61DC
:101A7C00FFF742FF78617A68B9687869FFF790FFE1
:101A8C00024697F90F3011461846FFF75FFF00BF6B
:101A9C001837BD4680BD80B582B000AF0346FB71E0
:101AAC0097F907301846FFF735FF00BF0837BD46DA
:101ABC0080BD80B582B000AF78607868FFF7A2FF78
:101ACC00034618460837BD4680BD000080B48BB075
:101ADC0000AF7860396000237B6200233B6248E1F1
:101AEC0001227B6A02FA03F3FB613B681B68FA690B
:101AFC001340BB61BA69FB699A4240F037813B687D
:101B0C005B68A34A93425ED0A14A934275D8A14A1E
:101B1C00934258D09F4A93426FD89F4A934252D0D7
:101B2C009D4A934269D89D4A93424CD09B4A93421A
:101B3C0063D89B4A934246D0994A93425DD8122B64
:101B4C002AD8122B59D801A252F823F0D31B000823
:101B5C00AD1B0008BF1B0008011C0008071C000877
:101B6C00071C0008071C0008071C0008071C0008BD
:101B7C00071C0008071C0008071C0008071C0008AD
:101B8C00071C0008071C0008071C0008071C00089D
:101B9C00B51B0008C91B0008824A934213D02CE0E5
:101BAC003B68DB683B6229E03B68DB6804333B62E3
:101BBC0024E03B68DB6808333B621FE03B68DB6872
:101BCC000C333B621AE03B689B68002B02D1042368
:101BDC003B6213E03B689B68012B05D108233B62F9
:101BEC007B68FA691A6109E008233B627B68FA6931
:101BFC005A6103E000233B6200E000BFBB69FF2B8E
:101C0C0001D87B6801E07B6804337B61BB69FF2BE7
:101C1C0002D87B6A9B0002E07B6A083B9B003B611D
:101C2C007B691A680F213B6901FA03F3DB431A4005
:101C3C00396A3B6901FA03F31A437B691A603B6802
:101C4C005B6803F08053002B00F09080564B9B692F
:101C5C00554A43F001039361534B9B6903F0010315
:101C6C00BB60BB68514A7B6A9B08023352F8233035
:101C7C00FB607B6A03F003039B000F2202FA03F361
:101C8C00DB43FA681340FB607B68494A93420DD0F2
:101C9C007B68484A934207D07B68474A934201D1FC
:101CAC00022304E0032302E0012300E000237A6A0C
:101CBC0002F0030292009340FA681343FB603B4925
:101CCC007B6A9B080233FA6841F823203B685B6807
:101CDC0003F48013002B06D0384B9A683749BB6944
:101CEC0013438B6006E0354B9A68BB69DB43334981
:101CFC0013408B603B685B6803F40013002B06D029
:101D0C002E4BDA682D49BB691343CB6006E02B4B95
:101D1C00DA68BB69DB4329491340CB603B685B68DD
:101D2C0003F40033002B06D0244B5A682349BB69BB
:101D3C0013434B6006E0214B5A68BB69DB431F49D8
:101D4C0013404B603B685B6803F48033002B06D078
:101D5C001A4B1A681949BB6913430B6006E0174B01
:101D6C001A68BB69DB43154913400B607B6A01336E
:101D7C007B623B681A687B6A22FA03F3002B7FF4C0
:101D8C00AFAE00BF00BF2C37BD4680BC704700BF54
:101D9C000000321000003110000022100000211051
:101DAC000000121000001110001002400000014051
:101DBC0000080140000C01400010014000040140EB
:101DCC0080B485B000AF78600B467B807B689A68E6
:101DDC007B881340002B02D00123FB7301E000230E
:101DEC00FB73FB7B18461437BD4680BC704780B430
:101DFC0083B000AF78600B467B8013467B707B789A
:101E0C00002B03D07A887B681A6103E07B881A0464
:101E1C007B681A6100BF0C37BD4680BC704780B42C
:101E2C0085B000AF78600B467B807B68DB68FB601D
:101E3C007A88FB6813401A04FB68D9437B880B40F3
:101E4C001A437B681A6100BF1437BD4680BC7047CB
:101E5C0080B586B000AF78607B68002B01D1012380
:101E6C006CE27B681B6803F00103002B00F0878099
:101E7C00924B5B6803F00C03042B0CD08F4B5B680C
:101E8C0003F00C03082B12D18C4B5B6803F48033EA
:101E9C00B3F5803F0BD1894B1B6803F40033002B47
:101EAC006CD07B685B68002B68D1012346E27B68B1
:101EBC005B68B3F5803F06D1804B1B687F4A43F4C7
:101ECC00803313602EE07B685B68002B0CD17B4B5E
:101EDC001B687A4A23F480331360784B1B68774A6B
:101EEC0023F4802313601DE07B685B68B3F5A02F9F
:101EFC000CD1724B1B68714A43F4802313606F4BF7
:101F0C001B686E4A43F4803313600BE06B4B1B6809
:101F1C006A4A23F480331360684B1B68674A23F4C6
:101F2C00802313607B685B68002B13D0FFF7B6FC33
:101F3C00386108E0FFF7B2FC02463B69D31A642B08
:101F4C0001D90323FAE15D4B1B6803F40033002B2A
:101F5C00F0D014E0FFF7A2FC386108E0FFF79EFC1C
:101F6C0002463B69D31A642B01D90323E6E1534B98
:101F7C001B6803F40033002BF0D100E000BF7B683A
:101F8C001B6803F00203002B63D04C4B5B6803F01F
:101F9C000C03002B0BD0494B5B6803F00C03082B94
:101FAC001CD1464B5B6803F48033002B16D1434B9A
:101FBC001B6803F00203002B05D07B681B69012B07
:101FCC0001D00123BAE13D4B1B6823F0F8027B687A
:101FDC005B69DB00394913430B603AE07B681B6992
:101FEC00002B20D0364B01221A60FFF757FC3861CA
:101FFC0008E0FFF753FC02463B69D31A022B01D9C8
:10200C0003239BE12D4B1B6803F00203002BF0D044
:10201C002A4B1B6823F0F8027B685B69DB002749BD
:10202C0013430B6015E0264B00221A60FFF736FCB9
:10203C00386108E0FFF732FC02463B69D31A022BE9
:10204C0001D903237AE11D4B1B6803F00203002B1B
:10205C00F0D17B681B6803F00803002B3AD07B6837
:10206C009B69002B19D0174B01221A60FFF716FC45
:10207C00386108E0FFF712FC02463B69D31A022BC9
:10208C0001D903235AE10D4B5B6A03F00203002BC9
:10209C00F0D0012000F09AFA1CE00A4B00221A60E2
:1020AC00FFF7FCFB38610FE0FFF7F8FB02463B69DA
:1020BC00D31A022B08D9032340E100BF00100240C1
:1020CC0000004242800442429E4B5B6A03F00203D2
:1020DC00002BE9D17B681B6803F00403002B00F094
:1020EC00A6800023FB75974BDB6903F08053002B14
:1020FC000DD1944BDB69934A43F08053D361914BE0
:10210C00DB6903F08053BB60BB680123FB758E4B0E
:10211C001B6803F48073002B18D18B4B1B688A4A05
:10212C0043F480731360FFF7B9FB386108E0FFF7E5
:10213C00B5FB02463B69D31A642B01D90323FDE09E
:10214C00814B1B6803F48073002BF0D07B68DB6839
:10215C00012B06D17B4B1B6A7A4A43F001031362B5
:10216C002DE07B68DB68002B0CD1764B1B6A754A23
:10217C0023F001031362734B1B6A724A23F00403AE
:10218C0013621CE07B68DB68052B0CD16D4B1B6A62
:10219C006C4A43F0040313626A4B1B6A694A43F0AE
:1021AC00010313620BE0674B1B6A664A23F00103C1
:1021BC001362644B1B6A634A23F0040313627B684B
:1021CC00DB68002B15D0FFF769FB38610AE0FFF7DD
:1021DC0065FB02463B69D31A41F28832934201D91E
:1021EC000323ABE0574B1B6A03F00203002BEED02A
:1021FC0014E0FFF753FB38610AE0FFF74FFB024690
:10220C003B69D31A41F28832934201D9032395E0FA
:10221C004C4B1B6A03F00203002BEED1FB7D012B10
:10222C0005D1484BDB69474A23F08053D3617B6867
:10223C00DB69002B00F08180424B5B6803F00C03E0
:10224C00082B61D07B68DB69022B46D13F4B002207
:10225C001A60FFF723FB386108E0FFF71FFB02460B
:10226C003B69D31A022B01D9032367E0354B1B685A
:10227C0003F00073002BF0D17B681B6AB3F5803F31
:10228C0008D1304B5B6823F400327B689B682D4986
:10229C0013434B602B4B5B6823F474127B68196AF5
:1022AC007B685B6A0B43274913434B60274B012226
:1022BC001A60FFF7F3FA386108E0FFF7EFFA02460D
:1022CC003B69D31A022B01D9032337E01D4B1B6842
:1022DC0003F00073002BF0D02FE01C4B00221A608F
:1022EC00FFF7DCFA386108E0FFF7D8FA02463B69E1
:1022FC00D31A022B01D9032320E0124B1B6803F0E5
:10230C000073002BF0D118E07B68DB69012B01D145
:10231C00012313E00B4B5B68FB60FB6803F480321A
:10232C007B681B6A9A4206D1FB6803F470127B68C7
:10233C005B6A9A4201D0012300E00023184618374B
:10234C00BD4680BD0010024000700040600042425B
:10235C0080B584B000AF786039607B68002B01D108
:10236C000123D0E06A4B1B6803F007033A689A42DA
:10237C0010D9674B1B6823F0070265493B68134370
:10238C000B60634B1B6803F007033A689A4201D059
:10239C000123B8E07B681B6803F00203002B20D0FC
:1023AC007B681B6803F00403002B05D0594B5B685A
:1023BC00584A43F4E06353607B681B6803F00803DE
:1023CC00002B05D0534B5B68524A43F46053536067
:1023DC00504B5B6823F0F0027B689B684D491343BC
:1023EC004B607B681B6803F00103002B40D07B68BB
:1023FC005B68012B07D1474B1B6803F40033002BA0
:10240C0015D101237FE07B685B68022B07D1414B20
:10241C001B6803F00073002B09D1012373E03D4BC3
:10242C001B6803F00203002B01D101236BE0394B35
:10243C005B6823F003027B685B68364913434B608F
:10244C00FFF72CFAF8600AE0FFF728FA0246FB685F
:10245C00D31A41F28832934201D9032353E02D4B16
:10246C005B6803F00C027B685B689B009A42EBD1C3
:10247C00274B1B6803F007033A689A4210D2244B8F
:10248C001B6823F0070222493B6813430B60204B67
:10249C001B6803F007033A689A4201D0012332E02B
:1024AC007B681B6803F00403002B08D0194B5B6896
:1024BC0023F4E0627B68DB68164913434B607B684E
:1024CC001B6803F00803002B09D0124B5B6823F444
:1024DC0060527B681B69DB000E4913434B6000F0B4
:1024EC0021F802460B4B5B681B0903F00F030A49EA
:1024FC00CB5C22FA03F3094A1360094B1B6818469C
:10250C00FFF78AF9002318461037BD4680BD00BF7F
:10251C000020024000100240542E000858000020F9
:10252C005C00002080B487B000AF0023FB60002368
:10253C00BB6000237B6100237B6000233B611E4B4F
:10254C005B68FB60FB6803F00C03042B02D0082BC8
:10255C0003D027E0194B3B6127E0FB689B0C03F091
:10256C000F03174AD35C7B60FB6803F48033002BAA
:10257C0010D0114B5B685B0C03F00103114AD35C68
:10258C00BB607B680D4A02FB03F2BB68B2FBF3F342
:10259C007B6104E07B680C4A02FB03F37B617B6983
:1025AC003B6102E0054B3B6100BF3B6918461C37A1
:1025BC00BD4680BC704700BF0010024000127A007C
:1025CC00642E0008742E000800093D0080B485B00C
:1025DC0000AF78600A4B1B680A4AA2FB03235B0A14
:1025EC007A6802FB03F3FB6000BFFB685A1EFA60BB
:1025FC00002BF9D100BF00BF1437BD4680BC70471B
:10260C0058000020D34D621080B582B000AF7860C6
:10261C007B68002B01D1012341E07B6893F83D30AE
:10262C00DBB2002B06D17B68002283F83C20786853
:10263C00FFF734F87B68022283F83D207B681A6828
:10264C007B6804331946104600F06EFA7B68012251
:10265C0083F846207B68012283F83E207B680122A8
:10266C0083F83F207B68012283F840207B6801229D
:10267C0083F841207B68012283F842207B68012289
:10268C0083F843207B68012283F844207B68012275
:10269C0083F845207B68012283F83D2000231846EF
:1026AC000837BD4680BD000080B485B000AF7860AF
:1026BC007B6893F83D30DBB2012B01D0012335E070
:1026CC007B68022283F83D207B681B68DA687B6894
:1026DC001B6842F00102DA607B681B68164A934261
:1026EC0009D07B681B68B3F1804F04D07B681B68F2
:1026FC00124A934211D17B681B689B6803F0070355
:10270C00FB60FB68062B10D07B681B681A687B6823
:10271C001B6842F001021A6007E07B681B681A68AC
:10272C007B681B6842F001021A60002318461437BC
:10273C00BD4680BC704700BF002C01400004004027
:10274C0080B582B000AF78607B681B681B6903F0B2
:10275C000203022B22D17B681B68DB6803F00203A7
:10276C00022B1BD17B681B686FF002021A617B681D
:10277C0001221A777B681B689B6903F00303002B0B
:10278C0003D0786800F0B4F905E0786800F0A7F998
:10279C00786800F0B6F97B6800221A777B681B68B2
:1027AC001B6903F00403042B22D17B681B68DB68D4
:1027BC0003F00403042B1BD17B681B686FF004022D
:1027CC001A617B6802221A777B681B689B6903F489
:1027DC004073002B03D0786800F08AF905E0786824
:1027EC0000F07DF9786800F08CF97B6800221A778C
:1027FC007B681B681B6903F00803082B22D17B68DC
:10280C001B68DB6803F00803082B1BD17B681B6873
:10281C006FF008021A617B6804221A777B681B68C8
:10282C00DB6903F00303002B03D0786800F060F938
:10283C0005E0786800F053F9786800F062F97B687D
:10284C0000221A777B681B681B6903F01003102B9E
:10285C0022D17B681B68DB6803F01003102B1BD1A3
:10286C007B681B686FF010021A617B6808221A776C
:10287C007B681B68DB6903F44073002B03D078681A
:10288C0000F036F905E0786800F029F9786800F076
:10289C0038F97B6800221A777B681B681B6903F088
:1028AC000103012B0ED17B681B68DB6803F001036D
:1028BC00012B07D17B681B686FF001021A617868E5
:1028CC00FEF74AFC7B681B681B6903F08003802BB6
:1028DC000ED17B681B68DB6803F08003802B07D16B
:1028EC007B681B686FF080021A61786800F06BFAE5
:1028FC007B681B681B6903F04003402B0ED17B687F
:10290C001B68DB6803F04003402B07D17B681B6816
:10291C006FF040021A61786800F0FCF87B681B6865
:10292C001B6903F02003202B0ED17B681B68DB682E
:10293C0003F02003202B07D17B681B686FF020026B
:10294C001A61786800F036FA00BF0837BD4680BDC2
:10295C0080B584B000AF786039600023FB737B686E
:10296C0093F83C30012B01D10223B4E07B680122A7
:10297C0083F83C207B68022283F83D207B681B682F
:10298C009B68BB60BB6823F07703BB60BB6823F418
:10299C007F43BB607B681B68BA689A603B681B68A6
:1029AC00B3F5005F3ED0B3F5005F00F28780B3F55E
:1029BC00805F00F08680B3F5805F7FD8702B1AD0D3
:1029CC00702B7BD8602B50D0602B77D8502B3CD001
:1029DC00502B73D8402B58D0402B6FD8302B64D051
:1029EC00302B6BD8202B60D0202B67D8002B5CD0E1
:1029FC00102B5AD062E07B6818683B6899683B687A
:102A0C005A683B68DB6800F05EF97B681B689B6862
:102A1C00BB60BB6843F07703BB607B681B68BA681C
:102A2C009A604FE07B6818683B6899683B685A6805
:102A3C003B68DB6800F047F97B681B689A687B6829
:102A4C001B6842F480429A603CE07B6818683B68E3
:102A5C0059683B68DB681A4600F0BEF87B681B6857
:102A6C005021184600F015F92CE07B6818683B687B
:102A7C0059683B68DB681A4600F0DCF87B681B6819
:102A8C006021184600F005F91CE07B6818683B686B
:102A9C0059683B68DB681A4600F09EF87B681B6837
:102AAC004021184600F0F5F80CE07B681A683B688A
:102ABC001B681946104600F0ECF803E00123FB7389
:102ACC0000E000BF7B68012283F83D207B68002278
:102ADC0083F83C20FB7B18461037BD4680BD80B484
:102AEC0083B000AF786000BF0C37BD4680BC704728
:102AFC0080B483B000AF786000BF0C37BD4680BC9B
:102B0C00704780B483B000AF786000BF0C37BD460F
:102B1C0080BC704780B483B000AF786000BF0C37C6
:102B2C00BD4680BC7047000080B485B000AF7860B3
:102B3C0039607B681B68FB607B68254A934207D031
:102B4C007B68B3F1804F03D07B68224A934208D153
:102B5C00FB6823F07003FB603B685B68FA68134307
:102B6C00FB607B681A4A934207D07B68B3F1804FB5
:102B7C0003D07B68174A934208D1FB6823F4407357
:102B8C00FB603B68DB68FA681343FB60FB6823F06F
:102B9C0080023B685B691343FB607B68FA681A60D0
:102BAC003B689A687B68DA623B681A687B689A6251
:102BBC007B68074A934203D13B681A697B681A63A6
:102BCC007B6801225A6100BF1437BD4680BC704738
:102BDC00002C01400004004080B487B000AFF860C6
:102BEC00B9607A60FB681B6A7B61FB681B6A23F027
:102BFC000102FB681A62FB689B693B613B6923F02D
:102C0C00F0033B617B681B013A6913433B617B69B1
:102C1C0023F00A037B617A69BB6813437B61FB6811
:102C2C003A699A61FB687A691A6200BF1C37BD4623
:102C3C0080BC704780B487B000AFF860B9607A6030
:102C4C00FB681B6A7B61FB681B6A23F01002FB6844
:102C5C001A62FB689B693B613B6923F470433B61DF
:102C6C007B681B033A6913433B617B6923F0A00328
:102C7C007B61BB681B017A6913437B61FB683A6912
:102C8C009A61FB687A691A6200BF1C37BD4680BC2A
:102C9C00704780B485B000AF786039607B689B6802
:102CAC00FB60FB6823F07003FB603A68FB6813431E
:102CBC0043F00703FB607B68FA689A6000BF143727
:102CCC00BD4680BC704780B487B000AFF860B96077
:102CDC007A603B60FB689B687B617B6923F47F4374
:102CEC007B613B681A027B681A43BB6813437A69A1
:102CFC0013437B61FB687A699A6000BF1C37BD4641
:102D0C0080BC704780B485B000AF786039607B6858
:102D1C0093F83C30012B01D1022341E07B68012266
:102D2C0083F83C207B68022283F83D207B681B687B
:102D3C005B68FB607B681B689B68BB60FB6823F06F
:102D4C007003FB603B681B68FA681343FB607B688D
:102D5C001B68FA685A607B681B68144A934209D056
:102D6C007B681B68B3F1804F04D07B681B68104AEA
:102D7C0093420CD1BB6823F08003BB603B685B685B
:102D8C00BA681343BB607B681B68BA689A607B683F
:102D9C00012283F83D207B68002283F83C2000232D
:102DAC0018461437BD4680BC704700BF002C01404C
:102DBC000004004080B483B000AF786000BF0C37D3
:102DCC00BD4680BC704780B483B000AF786000BF54
:102DDC000C37BD4680BC704770B500260C4D0D4CB1
:102DEC00641BA410A64209D100F022F800260A4D5B
:102DFC000A4C641BA410A64205D170BD55F8043BC7
:102E0C0098470136EEE755F8043B98470136F2E750
:102E1C00782E0008782E0008782E00087C2E0008EA
:102E2C0003460244934200D1704703F8011BF9E7B3
:102E3C00F8B500BFF8BC08BC9E467047F8B500BF9B
:082E4C00F8BC08BC9E4670476B
:102E54000000000000000000010203040607080946
:102E640002030405060708090A0B0C0D0E0F1010C7
:042E74000102000057
:042E7800310100081C
:042E7C000D0100083C
:102E8000010000000100000001000000010000003E
:102E9000010000000100000001000000010000002E
:102EA000010000000100000001000000010000001E
:102EB00064000000640000006400000001000000E5
:102EC00005000000020000000300000005000000F3
:102ED00002000000030000000024F40010000000C5
:042EE00001000000ED
:04000005080017AD2B
:00000001FF
